{
  "_format": "hh-sol-artifact-1",
  "contractName": "God",
  "sourceName": "contracts/God.sol",
  "abi": [
    {
      "inputs": [
        {
          "internalType": "address",
          "name": "_faith",
          "type": "address"
        },
        {
          "internalType": "address",
          "name": "_traits",
          "type": "address"
        },
        {
          "internalType": "uint256",
          "name": "_maxTokens",
          "type": "uint256"
        }
      ],
      "stateMutability": "nonpayable",
      "type": "constructor"
    },
    {
      "anonymous": false,
      "inputs": [
        {
          "indexed": true,
          "internalType": "address",
          "name": "owner",
          "type": "address"
        },
        {
          "indexed": true,
          "internalType": "address",
          "name": "approved",
          "type": "address"
        },
        {
          "indexed": true,
          "internalType": "uint256",
          "name": "tokenId",
          "type": "uint256"
        }
      ],
      "name": "Approval",
      "type": "event"
    },
    {
      "anonymous": false,
      "inputs": [
        {
          "indexed": true,
          "internalType": "address",
          "name": "owner",
          "type": "address"
        },
        {
          "indexed": true,
          "internalType": "address",
          "name": "operator",
          "type": "address"
        },
        {
          "indexed": false,
          "internalType": "bool",
          "name": "approved",
          "type": "bool"
        }
      ],
      "name": "ApprovalForAll",
      "type": "event"
    },
    {
      "anonymous": false,
      "inputs": [
        {
          "indexed": true,
          "internalType": "address",
          "name": "previousOwner",
          "type": "address"
        },
        {
          "indexed": true,
          "internalType": "address",
          "name": "newOwner",
          "type": "address"
        }
      ],
      "name": "OwnershipTransferred",
      "type": "event"
    },
    {
      "anonymous": false,
      "inputs": [
        {
          "indexed": false,
          "internalType": "address",
          "name": "account",
          "type": "address"
        }
      ],
      "name": "Paused",
      "type": "event"
    },
    {
      "anonymous": false,
      "inputs": [
        {
          "indexed": true,
          "internalType": "address",
          "name": "from",
          "type": "address"
        },
        {
          "indexed": true,
          "internalType": "address",
          "name": "to",
          "type": "address"
        },
        {
          "indexed": true,
          "internalType": "uint256",
          "name": "tokenId",
          "type": "uint256"
        }
      ],
      "name": "Transfer",
      "type": "event"
    },
    {
      "anonymous": false,
      "inputs": [
        {
          "indexed": false,
          "internalType": "address",
          "name": "account",
          "type": "address"
        }
      ],
      "name": "Unpaused",
      "type": "event"
    },
    {
      "inputs": [],
      "name": "MAX_TOKENS",
      "outputs": [
        {
          "internalType": "uint256",
          "name": "",
          "type": "uint256"
        }
      ],
      "stateMutability": "view",
      "type": "function"
    },
    {
      "inputs": [],
      "name": "MINT_PRICE",
      "outputs": [
        {
          "internalType": "uint256",
          "name": "",
          "type": "uint256"
        }
      ],
      "stateMutability": "view",
      "type": "function"
    },
    {
      "inputs": [],
      "name": "PAID_TOKENS",
      "outputs": [
        {
          "internalType": "uint256",
          "name": "",
          "type": "uint256"
        }
      ],
      "stateMutability": "view",
      "type": "function"
    },
    {
      "inputs": [
        {
          "internalType": "uint256",
          "name": "",
          "type": "uint256"
        },
        {
          "internalType": "uint256",
          "name": "",
          "type": "uint256"
        }
      ],
      "name": "aliases",
      "outputs": [
        {
          "internalType": "uint8",
          "name": "",
          "type": "uint8"
        }
      ],
      "stateMutability": "view",
      "type": "function"
    },
    {
      "inputs": [
        {
          "internalType": "address",
          "name": "to",
          "type": "address"
        },
        {
          "internalType": "uint256",
          "name": "tokenId",
          "type": "uint256"
        }
      ],
      "name": "approve",
      "outputs": [],
      "stateMutability": "nonpayable",
      "type": "function"
    },
    {
      "inputs": [
        {
          "internalType": "address",
          "name": "owner",
          "type": "address"
        }
      ],
      "name": "balanceOf",
      "outputs": [
        {
          "internalType": "uint256",
          "name": "",
          "type": "uint256"
        }
      ],
      "stateMutability": "view",
      "type": "function"
    },
    {
      "inputs": [
        {
          "internalType": "uint256",
          "name": "",
          "type": "uint256"
        }
      ],
      "name": "existingCombinations",
      "outputs": [
        {
          "internalType": "uint256",
          "name": "",
          "type": "uint256"
        }
      ],
      "stateMutability": "view",
      "type": "function"
    },
    {
      "inputs": [],
      "name": "faith",
      "outputs": [
        {
          "internalType": "contract FAITH",
          "name": "",
          "type": "address"
        }
      ],
      "stateMutability": "view",
      "type": "function"
    },
    {
      "inputs": [
        {
          "internalType": "uint256",
          "name": "tokenId",
          "type": "uint256"
        }
      ],
      "name": "getApproved",
      "outputs": [
        {
          "internalType": "address",
          "name": "",
          "type": "address"
        }
      ],
      "stateMutability": "view",
      "type": "function"
    },
    {
      "inputs": [],
      "name": "getPaidTokens",
      "outputs": [
        {
          "internalType": "uint256",
          "name": "",
          "type": "uint256"
        }
      ],
      "stateMutability": "view",
      "type": "function"
    },
    {
      "inputs": [
        {
          "internalType": "uint256",
          "name": "tokenId",
          "type": "uint256"
        }
      ],
      "name": "getTokenTraits",
      "outputs": [
        {
          "components": [
            {
              "internalType": "bool",
              "name": "isWorshipper",
              "type": "bool"
            },
            {
              "internalType": "uint8",
              "name": "tone",
              "type": "uint8"
            },
            {
              "internalType": "uint8",
              "name": "head",
              "type": "uint8"
            },
            {
              "internalType": "uint8",
              "name": "ears",
              "type": "uint8"
            },
            {
              "internalType": "uint8",
              "name": "eyes",
              "type": "uint8"
            },
            {
              "internalType": "uint8",
              "name": "nose",
              "type": "uint8"
            },
            {
              "internalType": "uint8",
              "name": "mouth",
              "type": "uint8"
            },
            {
              "internalType": "uint8",
              "name": "neck",
              "type": "uint8"
            },
            {
              "internalType": "uint8",
              "name": "feet",
              "type": "uint8"
            },
            {
              "internalType": "uint8",
              "name": "alphaIndex",
              "type": "uint8"
            }
          ],
          "internalType": "struct IGod.WorshipperGod",
          "name": "",
          "type": "tuple"
        }
      ],
      "stateMutability": "view",
      "type": "function"
    },
    {
      "inputs": [
        {
          "internalType": "address",
          "name": "owner",
          "type": "address"
        },
        {
          "internalType": "address",
          "name": "operator",
          "type": "address"
        }
      ],
      "name": "isApprovedForAll",
      "outputs": [
        {
          "internalType": "bool",
          "name": "",
          "type": "bool"
        }
      ],
      "stateMutability": "view",
      "type": "function"
    },
    {
      "inputs": [
        {
          "internalType": "uint256",
          "name": "amount",
          "type": "uint256"
        },
        {
          "internalType": "bool",
          "name": "stake",
          "type": "bool"
        }
      ],
      "name": "mint",
      "outputs": [],
      "stateMutability": "payable",
      "type": "function"
    },
    {
      "inputs": [
        {
          "internalType": "uint256",
          "name": "tokenId",
          "type": "uint256"
        }
      ],
      "name": "mintCost",
      "outputs": [
        {
          "internalType": "uint256",
          "name": "",
          "type": "uint256"
        }
      ],
      "stateMutability": "view",
      "type": "function"
    },
    {
      "inputs": [],
      "name": "minted",
      "outputs": [
        {
          "internalType": "uint16",
          "name": "",
          "type": "uint16"
        }
      ],
      "stateMutability": "view",
      "type": "function"
    },
    {
      "inputs": [],
      "name": "name",
      "outputs": [
        {
          "internalType": "string",
          "name": "",
          "type": "string"
        }
      ],
      "stateMutability": "view",
      "type": "function"
    },
    {
      "inputs": [],
      "name": "owner",
      "outputs": [
        {
          "internalType": "address",
          "name": "",
          "type": "address"
        }
      ],
      "stateMutability": "view",
      "type": "function"
    },
    {
      "inputs": [
        {
          "internalType": "uint256",
          "name": "tokenId",
          "type": "uint256"
        }
      ],
      "name": "ownerOf",
      "outputs": [
        {
          "internalType": "address",
          "name": "",
          "type": "address"
        }
      ],
      "stateMutability": "view",
      "type": "function"
    },
    {
      "inputs": [],
      "name": "paused",
      "outputs": [
        {
          "internalType": "bool",
          "name": "",
          "type": "bool"
        }
      ],
      "stateMutability": "view",
      "type": "function"
    },
    {
      "inputs": [
        {
          "internalType": "uint256",
          "name": "",
          "type": "uint256"
        },
        {
          "internalType": "uint256",
          "name": "",
          "type": "uint256"
        }
      ],
      "name": "rarities",
      "outputs": [
        {
          "internalType": "uint8",
          "name": "",
          "type": "uint8"
        }
      ],
      "stateMutability": "view",
      "type": "function"
    },
    {
      "inputs": [],
      "name": "renounceOwnership",
      "outputs": [],
      "stateMutability": "nonpayable",
      "type": "function"
    },
    {
      "inputs": [
        {
          "internalType": "address",
          "name": "from",
          "type": "address"
        },
        {
          "internalType": "address",
          "name": "to",
          "type": "address"
        },
        {
          "internalType": "uint256",
          "name": "tokenId",
          "type": "uint256"
        }
      ],
      "name": "safeTransferFrom",
      "outputs": [],
      "stateMutability": "nonpayable",
      "type": "function"
    },
    {
      "inputs": [
        {
          "internalType": "address",
          "name": "from",
          "type": "address"
        },
        {
          "internalType": "address",
          "name": "to",
          "type": "address"
        },
        {
          "internalType": "uint256",
          "name": "tokenId",
          "type": "uint256"
        },
        {
          "internalType": "bytes",
          "name": "_data",
          "type": "bytes"
        }
      ],
      "name": "safeTransferFrom",
      "outputs": [],
      "stateMutability": "nonpayable",
      "type": "function"
    },
    {
      "inputs": [
        {
          "internalType": "address",
          "name": "operator",
          "type": "address"
        },
        {
          "internalType": "bool",
          "name": "approved",
          "type": "bool"
        }
      ],
      "name": "setApprovalForAll",
      "outputs": [],
      "stateMutability": "nonpayable",
      "type": "function"
    },
    {
      "inputs": [
        {
          "internalType": "uint256",
          "name": "_paidTokens",
          "type": "uint256"
        }
      ],
      "name": "setPaidTokens",
      "outputs": [],
      "stateMutability": "nonpayable",
      "type": "function"
    },
    {
      "inputs": [
        {
          "internalType": "bool",
          "name": "_paused",
          "type": "bool"
        }
      ],
      "name": "setPaused",
      "outputs": [],
      "stateMutability": "nonpayable",
      "type": "function"
    },
    {
      "inputs": [
        {
          "internalType": "address",
          "name": "_temple",
          "type": "address"
        }
      ],
      "name": "setTemple",
      "outputs": [],
      "stateMutability": "nonpayable",
      "type": "function"
    },
    {
      "inputs": [
        {
          "internalType": "bytes4",
          "name": "interfaceId",
          "type": "bytes4"
        }
      ],
      "name": "supportsInterface",
      "outputs": [
        {
          "internalType": "bool",
          "name": "",
          "type": "bool"
        }
      ],
      "stateMutability": "view",
      "type": "function"
    },
    {
      "inputs": [],
      "name": "symbol",
      "outputs": [
        {
          "internalType": "string",
          "name": "",
          "type": "string"
        }
      ],
      "stateMutability": "view",
      "type": "function"
    },
    {
      "inputs": [],
      "name": "temple",
      "outputs": [
        {
          "internalType": "contract ITemple",
          "name": "",
          "type": "address"
        }
      ],
      "stateMutability": "view",
      "type": "function"
    },
    {
      "inputs": [
        {
          "internalType": "uint256",
          "name": "index",
          "type": "uint256"
        }
      ],
      "name": "tokenByIndex",
      "outputs": [
        {
          "internalType": "uint256",
          "name": "",
          "type": "uint256"
        }
      ],
      "stateMutability": "view",
      "type": "function"
    },
    {
      "inputs": [
        {
          "internalType": "address",
          "name": "owner",
          "type": "address"
        },
        {
          "internalType": "uint256",
          "name": "index",
          "type": "uint256"
        }
      ],
      "name": "tokenOfOwnerByIndex",
      "outputs": [
        {
          "internalType": "uint256",
          "name": "",
          "type": "uint256"
        }
      ],
      "stateMutability": "view",
      "type": "function"
    },
    {
      "inputs": [
        {
          "internalType": "uint256",
          "name": "",
          "type": "uint256"
        }
      ],
      "name": "tokenTraits",
      "outputs": [
        {
          "internalType": "bool",
          "name": "isWorshipper",
          "type": "bool"
        },
        {
          "internalType": "uint8",
          "name": "tone",
          "type": "uint8"
        },
        {
          "internalType": "uint8",
          "name": "head",
          "type": "uint8"
        },
        {
          "internalType": "uint8",
          "name": "ears",
          "type": "uint8"
        },
        {
          "internalType": "uint8",
          "name": "eyes",
          "type": "uint8"
        },
        {
          "internalType": "uint8",
          "name": "nose",
          "type": "uint8"
        },
        {
          "internalType": "uint8",
          "name": "mouth",
          "type": "uint8"
        },
        {
          "internalType": "uint8",
          "name": "neck",
          "type": "uint8"
        },
        {
          "internalType": "uint8",
          "name": "feet",
          "type": "uint8"
        },
        {
          "internalType": "uint8",
          "name": "alphaIndex",
          "type": "uint8"
        }
      ],
      "stateMutability": "view",
      "type": "function"
    },
    {
      "inputs": [
        {
          "internalType": "uint256",
          "name": "tokenId",
          "type": "uint256"
        }
      ],
      "name": "tokenURI",
      "outputs": [
        {
          "internalType": "string",
          "name": "",
          "type": "string"
        }
      ],
      "stateMutability": "view",
      "type": "function"
    },
    {
      "inputs": [],
      "name": "totalSupply",
      "outputs": [
        {
          "internalType": "uint256",
          "name": "",
          "type": "uint256"
        }
      ],
      "stateMutability": "view",
      "type": "function"
    },
    {
      "inputs": [],
      "name": "traits",
      "outputs": [
        {
          "internalType": "contract ITraits",
          "name": "",
          "type": "address"
        }
      ],
      "stateMutability": "view",
      "type": "function"
    },
    {
      "inputs": [
        {
          "internalType": "address",
          "name": "from",
          "type": "address"
        },
        {
          "internalType": "address",
          "name": "to",
          "type": "address"
        },
        {
          "internalType": "uint256",
          "name": "tokenId",
          "type": "uint256"
        }
      ],
      "name": "transferFrom",
      "outputs": [],
      "stateMutability": "nonpayable",
      "type": "function"
    },
    {
      "inputs": [
        {
          "internalType": "address",
          "name": "newOwner",
          "type": "address"
        }
      ],
      "name": "transferOwnership",
      "outputs": [],
      "stateMutability": "nonpayable",
      "type": "function"
    },
    {
      "inputs": [],
      "name": "withdraw",
      "outputs": [],
      "stateMutability": "nonpayable",
      "type": "function"
    }
  ],
  "bytecode": "0x60a06040523480156200001157600080fd5b5060405162007c5938038062007c598339818101604052810190620000379190620021c6565b6040518060400160405280600c81526020017f4f6c796d7075732047616d6500000000000000000000000000000000000000008152506040518060400160405280600581526020017f4f47414d450000000000000000000000000000000000000000000000000000008152508160009080519060200190620000bb9291906200179b565b508060019080519060200190620000d49291906200179b565b505050620000f7620000eb620016cd60201b60201c565b620016d560201b60201c565b6000600a60146101000a81548160ff02191690831515021790555082603460006101000a81548173ffffffffffffffffffffffffffffffffffffffff021916908373ffffffffffffffffffffffffffffffffffffffff16021790555081603560006101000a81548173ffffffffffffffffffffffffffffffffffffffff021916908373ffffffffffffffffffffffffffffffffffffffff1602179055508060808181525050600581620001ab919062002251565b600b819055506040518060a00160405280600f60ff168152602001603260ff16815260200160c860ff16815260200160fa60ff16815260200160ff8016815250600f60006012811062000203576200020262002289565b5b01906005620002149291906200182c565b506040518060a00160405280600460ff168152602001600460ff168152602001600460ff168152602001600460ff168152602001600460ff16815250602160006012811062000268576200026762002289565b5b01906005620002799291906200182c565b5060405180610280016040528060be60ff16815260200160d760ff16815260200160f060ff168152602001606460ff168152602001606e60ff168152602001608760ff16815260200160a060ff16815260200160b960ff168152602001605060ff16815260200160d260ff16815260200160eb60ff16815260200160f060ff168152602001605060ff168152602001605060ff168152602001606460ff168152602001606460ff168152602001606460ff16815260200160f560ff16815260200160fa60ff16815260200160ff8016815250600f60016012811062000363576200036262002289565b5b0190601462000374929190620018da565b50604051806102800160405280600160ff168152602001600260ff168152602001600460ff168152602001600060ff168152602001600560ff168152602001600660ff168152602001600760ff168152602001600960ff168152602001600060ff168152602001600a60ff168152602001600b60ff168152602001601160ff168152602001600060ff168152602001600060ff168152602001600060ff168152602001600060ff168152602001600460ff168152602001601260ff168152602001601360ff168152602001601360ff1681525060216001601281106200045f576200045e62002289565b5b0190601462000470929190620018da565b506040518060c0016040528060ff80168152602001601e60ff168152602001603c60ff168152602001603c60ff168152602001609660ff168152602001609c60ff16815250600f600260128110620004cd57620004cc62002289565b5b01906006620004de92919062001988565b506040518060c00160405280600060ff168152602001600060ff168152602001600060ff168152602001600060ff168152602001600060ff168152602001600060ff1681525060216002601281106200053c576200053b62002289565b5b019060066200054d92919062001988565b5060405180610380016040528060dd60ff168152602001606460ff16815260200160b560ff168152602001608c60ff16815260200160e060ff168152602001609360ff168152602001605460ff16815260200160e460ff168152602001608c60ff16815260200160e060ff16815260200160fa60ff16815260200160a060ff16815260200160f160ff16815260200160cf60ff16815260200160ad60ff168152602001605460ff16815260200160fe60ff16815260200160dc60ff16815260200160c460ff168152602001608c60ff16815260200160a860ff16815260200160fc60ff168152602001608c60ff16815260200160b760ff16815260200160ec60ff16815260200160fc60ff16815260200160e060ff16815260200160ff8016815250600f60036012811062000687576200068662002289565b5b0190601c6200069892919062001a36565b50604051806103800160405280600160ff168152602001600260ff168152602001600560ff168152602001600060ff168152602001600160ff168152602001600760ff168152602001600160ff168152602001600a60ff168152602001600560ff168152602001600a60ff168152602001600b60ff168152602001600c60ff168152602001600d60ff168152602001600e60ff168152602001601060ff168152602001600b60ff168152602001601160ff168152602001601760ff168152602001600d60ff168152602001600e60ff168152602001601160ff168152602001601760ff168152602001601760ff168152602001601860ff168152602001601b60ff168152602001601b60ff168152602001601b60ff168152602001601b60ff168152506021600360128110620007d357620007d262002289565b5b0190601c620007e492919062001a36565b5060405180610140016040528060af60ff168152602001606460ff168152602001602860ff16815260200160fa60ff168152602001607360ff168152602001606460ff16815260200160b960ff16815260200160af60ff16815260200160b460ff16815260200160ff8016815250600f6004601281106200086a576200086962002289565b5b0190600a6200087b92919062001ae4565b50604051806101400160405280600360ff168152602001600060ff168152602001600460ff168152602001600660ff168152602001600660ff168152602001600760ff168152602001600860ff168152602001600860ff168152602001600960ff168152602001600960ff16815250602160046012811062000902576200090162002289565b5b0190600a6200091392919062001ae4565b50604051806102000160405280605060ff16815260200160e160ff16815260200160e360ff16815260200160e460ff168152602001607060ff16815260200160f060ff168152602001604060ff16815260200160a060ff16815260200160a760ff16815260200160d960ff16815260200160ab60ff168152602001604060ff16815260200160f060ff168152602001607e60ff168152602001605060ff16815260200160ff8016815250600f600560128110620009d557620009d462002289565b5b01906010620009e692919062001b92565b50604051806102000160405280600160ff168152602001600260ff168152602001600360ff168152602001600860ff168152602001600260ff168152602001600860ff168152602001600860ff168152602001600960ff168152602001600960ff168152602001600a60ff168152602001600d60ff168152602001600a60ff168152602001600d60ff168152602001600f60ff168152602001600d60ff168152602001600f60ff16815250602160056012811062000aa95762000aa862002289565b5b0190601062000aba92919062001b92565b50604051806020016040528060ff8016815250600f60066012811062000ae55762000ae462002289565b5b0190600162000af692919062001c40565b506040518060200160405280600060ff16815250602160066012811062000b225762000b2162002289565b5b0190600162000b3392919062001c40565b5060405180610260016040528060f360ff16815260200160bd60ff168152602001608560ff168152602001608560ff168152602001603960ff168152602001605f60ff168152602001609860ff168152602001608760ff168152602001608560ff168152602001603960ff16815260200160de60ff16815260200160a860ff168152602001603960ff168152602001603960ff168152602001602660ff168152602001607260ff168152602001607260ff168152602001607260ff16815260200160ff8016815250600f60076012811062000c135762000c1262002289565b5b0190601362000c2492919062001cee565b50604051806102600160405280600160ff168152602001600760ff168152602001600060ff168152602001600060ff168152602001600060ff168152602001600060ff168152602001600060ff168152602001600a60ff168152602001600060ff168152602001600060ff168152602001600b60ff168152602001601260ff168152602001600060ff168152602001600060ff168152602001600060ff168152602001600160ff168152602001600760ff168152602001600b60ff168152602001601260ff16815250602160076012811062000d055762000d0462002289565b5b0190601362000d1692919062001cee565b50604051806020016040528060ff8016815250600f60086012811062000d415762000d4062002289565b5b0190600162000d5292919062001c40565b506040518060200160405280600060ff16815250602160086012811062000d7e5762000d7d62002289565b5b0190600162000d8f92919062001c40565b5060405180610120016040528060d260ff168152602001605a60ff168152602001600960ff168152602001600960ff168152602001600960ff168152602001609660ff168152602001600960ff16815260200160ff80168152602001600960ff16815250600f60096012811062000e0b5762000e0a62002289565b5b0190600962000e1c92919062001d9c565b50604051806101200160405280600560ff168152602001600060ff168152602001600060ff168152602001600560ff168152602001600560ff168152602001600760ff168152602001600560ff168152602001600760ff168152602001600560ff16815250602160096012811062000e995762000e9862002289565b5b0190600962000eaa92919062001d9c565b50604051806020016040528060ff8016815250600f600a6012811062000ed55762000ed462002289565b5b0190600162000ee692919062001c40565b506040518060200160405280600060ff168152506021600a6012811062000f125762000f1162002289565b5b0190600162000f2392919062001c40565b50604051806020016040528060ff8016815250600f600b6012811062000f4e5762000f4d62002289565b5b0190600162000f5f92919062001c40565b506040518060200160405280600060ff168152506021600b6012811062000f8b5762000f8a62002289565b5b0190600162000f9c92919062001c40565b50604051806103600160405280608760ff16815260200160b160ff16815260200160db60ff168152602001608d60ff16815260200160b760ff16815260200160e160ff168152602001609360ff16815260200160bd60ff16815260200160e760ff168152602001608760ff168152602001608760ff168152602001608760ff168152602001608760ff16815260200160f660ff168152602001609660ff168152602001609660ff168152602001609c60ff16815260200160a560ff16815260200160ab60ff16815260200160b460ff16815260200160ba60ff16815260200160c360ff16815260200160c960ff16815260200160d260ff16815260200160f360ff16815260200160fc60ff16815260200160ff8016815250600f600c60128110620010cc57620010cb62002289565b5b0190601b620010dd92919062001e4a565b50604051806103600160405280600160ff168152602001600260ff168152602001600360ff168152602001600460ff168152602001600560ff168152602001600660ff168152602001600760ff168152602001600860ff168152602001600d60ff168152602001600360ff168152602001600660ff168152602001600e60ff168152602001600f60ff168152602001601060ff168152602001601060ff168152602001601160ff168152602001601260ff168152602001601360ff168152602001601460ff168152602001601560ff168152602001601660ff168152602001601760ff168152602001601860ff168152602001601960ff168152602001601a60ff168152602001601a60ff168152602001601a60ff168152506021600c601281106200120e576200120d62002289565b5b0190601b6200121f92919062001e4a565b50604051806020016040528060ff8016815250600f600d601281106200124a576200124962002289565b5b019060016200125b92919062001c40565b506040518060200160405280600060ff168152506021600d6012811062001287576200128662002289565b5b019060016200129892919062001c40565b50604051806101a0016040528060ef60ff16815260200160f460ff16815260200160f960ff16815260200160ea60ff16815260200160ea60ff16815260200160ea60ff16815260200160ea60ff16815260200160ea60ff16815260200160ea60ff16815260200160ea60ff168152602001608260ff16815260200160ff8016815260200160f760ff16815250600f600e601281106200133c576200133b62002289565b5b0190600d6200134d92919062001ef8565b50604051806101a00160405280600160ff168152602001600260ff168152602001600b60ff168152602001600060ff168152602001600b60ff168152602001600b60ff168152602001600b60ff168152602001600b60ff168152602001600b60ff168152602001600b60ff168152602001600b60ff168152602001600b60ff168152602001600b60ff168152506021600e60128110620013f257620013f162002289565b5b0190600d6200140392919062001ef8565b50604051806101e00160405280604b60ff16815260200160b460ff16815260200160a560ff168152602001607860ff168152602001603c60ff168152602001609660ff168152602001606960ff16815260200160c360ff168152602001602d60ff16815260200160e160ff168152602001604b60ff168152602001602d60ff16815260200160c360ff168152602001607860ff16815260200160ff8016815250600f8060128110620014ba57620014b962002289565b5b0190600f620014cb92919062001fa6565b50604051806101e00160405280600160ff168152602001600960ff168152602001600060ff168152602001600060ff168152602001600060ff168152602001600060ff168152602001600060ff168152602001600060ff168152602001600060ff168152602001600c60ff168152602001600060ff168152602001600060ff168152602001600e60ff168152602001600c60ff168152602001600e60ff168152506021600f6012811062001584576200158362002289565b5b0190600f6200159592919062001fa6565b50604051806020016040528060ff8016815250600f601060128110620015c057620015bf62002289565b5b01906001620015d192919062001c40565b506040518060200160405280600060ff168152506021601060128110620015fd57620015fc62002289565b5b019060016200160e92919062001c40565b506040518060800160405280600860ff16815260200160a060ff168152602001604960ff16815260200160ff8016815250600f60116012811062001657576200165662002289565b5b019060046200166892919062002054565b506040518060800160405280600260ff168152602001600360ff168152602001600360ff168152602001600360ff168152506021601160128110620016b257620016b162002289565b5b01906004620016c392919062002054565b505050506200231d565b600033905090565b6000600a60009054906101000a900473ffffffffffffffffffffffffffffffffffffffff16905081600a60006101000a81548173ffffffffffffffffffffffffffffffffffffffff021916908373ffffffffffffffffffffffffffffffffffffffff1602179055508173ffffffffffffffffffffffffffffffffffffffff168173ffffffffffffffffffffffffffffffffffffffff167f8be0079c531659141344cd1fd0a4f28419497f9722a3daafe3b4186f6b6457e060405160405180910390a35050565b828054620017a990620022e7565b90600052602060002090601f016020900481019282620017cd576000855562001819565b82601f10620017e857805160ff191683800117855562001819565b8280016001018555821562001819579182015b8281111562001818578251825591602001919060010190620017fb565b5b50905062001828919062002102565b5090565b82805482825590600052602060002090601f01602090048101928215620018c75791602002820160005b838211156200189657835183826101000a81548160ff021916908360ff160217905550926020019260010160208160000104928301926001030262001856565b8015620018c55782816101000a81549060ff021916905560010160208160000104928301926001030262001896565b505b509050620018d6919062002102565b5090565b82805482825590600052602060002090601f01602090048101928215620019755791602002820160005b838211156200194457835183826101000a81548160ff021916908360ff160217905550926020019260010160208160000104928301926001030262001904565b8015620019735782816101000a81549060ff021916905560010160208160000104928301926001030262001944565b505b50905062001984919062002102565b5090565b82805482825590600052602060002090601f0160209004810192821562001a235791602002820160005b83821115620019f257835183826101000a81548160ff021916908360ff1602179055509260200192600101602081600001049283019260010302620019b2565b801562001a215782816101000a81549060ff0219169055600101602081600001049283019260010302620019f2565b505b50905062001a32919062002102565b5090565b82805482825590600052602060002090601f0160209004810192821562001ad15791602002820160005b8382111562001aa057835183826101000a81548160ff021916908360ff160217905550926020019260010160208160000104928301926001030262001a60565b801562001acf5782816101000a81549060ff021916905560010160208160000104928301926001030262001aa0565b505b50905062001ae0919062002102565b5090565b82805482825590600052602060002090601f0160209004810192821562001b7f5791602002820160005b8382111562001b4e57835183826101000a81548160ff021916908360ff160217905550926020019260010160208160000104928301926001030262001b0e565b801562001b7d5782816101000a81549060ff021916905560010160208160000104928301926001030262001b4e565b505b50905062001b8e919062002102565b5090565b82805482825590600052602060002090601f0160209004810192821562001c2d5791602002820160005b8382111562001bfc57835183826101000a81548160ff021916908360ff160217905550926020019260010160208160000104928301926001030262001bbc565b801562001c2b5782816101000a81549060ff021916905560010160208160000104928301926001030262001bfc565b505b50905062001c3c919062002102565b5090565b82805482825590600052602060002090601f0160209004810192821562001cdb5791602002820160005b8382111562001caa57835183826101000a81548160ff021916908360ff160217905550926020019260010160208160000104928301926001030262001c6a565b801562001cd95782816101000a81549060ff021916905560010160208160000104928301926001030262001caa565b505b50905062001cea919062002102565b5090565b82805482825590600052602060002090601f0160209004810192821562001d895791602002820160005b8382111562001d5857835183826101000a81548160ff021916908360ff160217905550926020019260010160208160000104928301926001030262001d18565b801562001d875782816101000a81549060ff021916905560010160208160000104928301926001030262001d58565b505b50905062001d98919062002102565b5090565b82805482825590600052602060002090601f0160209004810192821562001e375791602002820160005b8382111562001e0657835183826101000a81548160ff021916908360ff160217905550926020019260010160208160000104928301926001030262001dc6565b801562001e355782816101000a81549060ff021916905560010160208160000104928301926001030262001e06565b505b50905062001e46919062002102565b5090565b82805482825590600052602060002090601f0160209004810192821562001ee55791602002820160005b8382111562001eb457835183826101000a81548160ff021916908360ff160217905550926020019260010160208160000104928301926001030262001e74565b801562001ee35782816101000a81549060ff021916905560010160208160000104928301926001030262001eb4565b505b50905062001ef4919062002102565b5090565b82805482825590600052602060002090601f0160209004810192821562001f935791602002820160005b8382111562001f6257835183826101000a81548160ff021916908360ff160217905550926020019260010160208160000104928301926001030262001f22565b801562001f915782816101000a81549060ff021916905560010160208160000104928301926001030262001f62565b505b50905062001fa2919062002102565b5090565b82805482825590600052602060002090601f01602090048101928215620020415791602002820160005b838211156200201057835183826101000a81548160ff021916908360ff160217905550926020019260010160208160000104928301926001030262001fd0565b80156200203f5782816101000a81549060ff021916905560010160208160000104928301926001030262002010565b505b50905062002050919062002102565b5090565b82805482825590600052602060002090601f01602090048101928215620020ef5791602002820160005b83821115620020be57835183826101000a81548160ff021916908360ff16021790555092602001926001016020816000010492830192600103026200207e565b8015620020ed5782816101000a81549060ff0219169055600101602081600001049283019260010302620020be565b505b509050620020fe919062002102565b5090565b5b808211156200211d57600081600090555060010162002103565b5090565b600080fd5b600073ffffffffffffffffffffffffffffffffffffffff82169050919050565b6000620021538262002126565b9050919050565b620021658162002146565b81146200217157600080fd5b50565b60008151905062002185816200215a565b92915050565b6000819050919050565b620021a0816200218b565b8114620021ac57600080fd5b50565b600081519050620021c08162002195565b92915050565b600080600060608486031215620021e257620021e162002121565b5b6000620021f28682870162002174565b9350506020620022058682870162002174565b92505060406200221886828701620021af565b9150509250925092565b7f4e487b7100000000000000000000000000000000000000000000000000000000600052601260045260246000fd5b60006200225e826200218b565b91506200226b836200218b565b9250826200227e576200227d62002222565b5b828204905092915050565b7f4e487b7100000000000000000000000000000000000000000000000000000000600052603260045260246000fd5b7f4e487b7100000000000000000000000000000000000000000000000000000000600052602260045260246000fd5b600060028204905060018216806200230057607f821691505b60208210811415620023175762002316620022b8565b5b50919050565b60805161590b6200234e60003960008181610e6601528181610eb7015281816113cf0152612250015261590b6000f3fe6080604052600436106102305760003560e01c80636352211e1161012e578063a22cb465116100ab578063e05c57bf1161006f578063e05c57bf1461087c578063e1fc334f146108c2578063e985e9c5146108ed578063f2fde38b1461092a578063f47c84c51461095357610230565b8063a22cb46514610797578063b88d4fde146107c0578063c002d23d146107e9578063c084f54014610814578063c87b56dd1461083f57610230565b80638da5cb5b116100f25780638da5cb5b1461069c57806394e56847146106c757806395d89b411461070457806397cd9a341461072f578063a1b8f3741461075a57610230565b80636352211e146105c457806367f68fac146106015780636e5640c61461061d57806370a0823114610648578063715018a61461068557610230565b80632f745c59116101bc5780634018b1f8116101805780634018b1f8146104dd57806342842e0e146105085780634f02c420146105315780634f6ccce71461055c5780635c975abb1461059957610230565b80632f745c59146103e657806333df4b2c146104235780633431a7531461046057806336838391146104895780633ccfd60b146104c657610230565b8063095ea7b311610203578063095ea7b31461030357806316c38b3c1461032c57806318160ddd1461035557806323b872dd1461038057806327de8f27146103a957610230565b806301ffc9a71461023557806302d2cd391461027257806306fdde031461029b578063081812fc146102c6575b600080fd5b34801561024157600080fd5b5061025c60048036038101906102579190613a4c565b61097e565b6040516102699190613a94565b60405180910390f35b34801561027e57600080fd5b5061029960048036038101906102949190613b0d565b6109f8565b005b3480156102a757600080fd5b506102b0610ab8565b6040516102bd9190613bd3565b60405180910390f35b3480156102d257600080fd5b506102ed60048036038101906102e89190613c2b565b610b4a565b6040516102fa9190613c67565b60405180910390f35b34801561030f57600080fd5b5061032a60048036038101906103259190613c82565b610bcf565b005b34801561033857600080fd5b50610353600480360381019061034e9190613cee565b610ce7565b005b34801561036157600080fd5b5061036a610d82565b6040516103779190613d2a565b60405180910390f35b34801561038c57600080fd5b506103a760048036038101906103a29190613d45565b610d8f565b005b3480156103b557600080fd5b506103d060048036038101906103cb9190613c2b565b610e4c565b6040516103dd9190613d2a565b60405180910390f35b3480156103f257600080fd5b5061040d60048036038101906104089190613c82565b610f15565b60405161041a9190613d2a565b60405180910390f35b34801561042f57600080fd5b5061044a60048036038101906104459190613d98565b610fba565b6040516104579190613df4565b60405180910390f35b34801561046c57600080fd5b5061048760048036038101906104829190613c2b565b611000565b005b34801561049557600080fd5b506104b060048036038101906104ab9190613d98565b611086565b6040516104bd9190613df4565b60405180910390f35b3480156104d257600080fd5b506104db6110cc565b005b3480156104e957600080fd5b506104f2611198565b6040516104ff9190613d2a565b60405180910390f35b34801561051457600080fd5b5061052f600480360381019061052a9190613d45565b6111a2565b005b34801561053d57600080fd5b506105466111c2565b6040516105539190613e2c565b60405180910390f35b34801561056857600080fd5b50610583600480360381019061057e9190613c2b565b6111d6565b6040516105909190613d2a565b60405180910390f35b3480156105a557600080fd5b506105ae611247565b6040516105bb9190613a94565b60405180910390f35b3480156105d057600080fd5b506105eb60048036038101906105e69190613c2b565b61125e565b6040516105f89190613c67565b60405180910390f35b61061b60048036038101906106169190613e47565b611310565b005b34801561062957600080fd5b50610632611925565b60405161063f9190613ee6565b60405180910390f35b34801561065457600080fd5b5061066f600480360381019061066a9190613b0d565b61194b565b60405161067c9190613d2a565b60405180910390f35b34801561069157600080fd5b5061069a611a03565b005b3480156106a857600080fd5b506106b1611a8b565b6040516106be9190613c67565b60405180910390f35b3480156106d357600080fd5b506106ee60048036038101906106e99190613c2b565b611ab5565b6040516106fb9190613feb565b60405180910390f35b34801561071057600080fd5b50610719611c03565b6040516107269190613bd3565b60405180910390f35b34801561073b57600080fd5b50610744611c95565b6040516107519190614028565b60405180910390f35b34801561076657600080fd5b50610781600480360381019061077c9190613c2b565b611cbb565b60405161078e9190613d2a565b60405180910390f35b3480156107a357600080fd5b506107be60048036038101906107b99190614043565b611cd3565b005b3480156107cc57600080fd5b506107e760048036038101906107e291906141b8565b611e54565b005b3480156107f557600080fd5b506107fe611eb6565b60405161080b9190613d2a565b60405180910390f35b34801561082057600080fd5b50610829611ebf565b6040516108369190613d2a565b60405180910390f35b34801561084b57600080fd5b5061086660048036038101906108619190613c2b565b611ec5565b6040516108739190613bd3565b60405180910390f35b34801561088857600080fd5b506108a3600480360381019061089e9190613c2b565b611fc6565b6040516108b99a9998979695949392919061423b565b60405180910390f35b3480156108ce57600080fd5b506108d761209c565b6040516108e491906142f8565b60405180910390f35b3480156108f957600080fd5b50610914600480360381019061090f9190614313565b6120c2565b6040516109219190613a94565b60405180910390f35b34801561093657600080fd5b50610951600480360381019061094c9190613b0d565b612156565b005b34801561095f57600080fd5b5061096861224e565b6040516109759190613d2a565b60405180910390f35b60007f780e9d63000000000000000000000000000000000000000000000000000000007bffffffffffffffffffffffffffffffffffffffffffffffffffffffff1916827bffffffffffffffffffffffffffffffffffffffffffffffffffffffff191614806109f157506109f082612272565b5b9050919050565b610a00612354565b73ffffffffffffffffffffffffffffffffffffffff16610a1e611a8b565b73ffffffffffffffffffffffffffffffffffffffff1614610a74576040517f08c379a0000000000000000000000000000000000000000000000000000000008152600401610a6b9061439f565b60405180910390fd5b80603360006101000a81548173ffffffffffffffffffffffffffffffffffffffff021916908373ffffffffffffffffffffffffffffffffffffffff16021790555050565b606060008054610ac7906143ee565b80601f0160208091040260200160405190810160405280929190818152602001828054610af3906143ee565b8015610b405780601f10610b1557610100808354040283529160200191610b40565b820191906000526020600020905b815481529060010190602001808311610b2357829003601f168201915b5050505050905090565b6000610b558261235c565b610b94576040517f08c379a0000000000000000000000000000000000000000000000000000000008152600401610b8b90614492565b60405180910390fd5b6004600083815260200190815260200160002060009054906101000a900473ffffffffffffffffffffffffffffffffffffffff169050919050565b6000610bda8261125e565b90508073ffffffffffffffffffffffffffffffffffffffff168373ffffffffffffffffffffffffffffffffffffffff161415610c4b576040517f08c379a0000000000000000000000000000000000000000000000000000000008152600401610c4290614524565b60405180910390fd5b8073ffffffffffffffffffffffffffffffffffffffff16610c6a612354565b73ffffffffffffffffffffffffffffffffffffffff161480610c995750610c9881610c93612354565b6120c2565b5b610cd8576040517f08c379a0000000000000000000000000000000000000000000000000000000008152600401610ccf906145b6565b60405180910390fd5b610ce283836123c8565b505050565b610cef612354565b73ffffffffffffffffffffffffffffffffffffffff16610d0d611a8b565b73ffffffffffffffffffffffffffffffffffffffff1614610d63576040517f08c379a0000000000000000000000000000000000000000000000000000000008152600401610d5a9061439f565b60405180910390fd5b8015610d7657610d71612481565b610d7f565b610d7e612524565b5b50565b6000600880549050905090565b603360009054906101000a900473ffffffffffffffffffffffffffffffffffffffff1673ffffffffffffffffffffffffffffffffffffffff16610dd0612354565b73ffffffffffffffffffffffffffffffffffffffff1614610e3c57610dfc610df6612354565b826125c6565b610e3b576040517f08c379a0000000000000000000000000000000000000000000000000000000008152600401610e3290614648565b60405180910390fd5b5b610e478383836126a4565b505050565b6000600b548211610e605760009050610f10565b600560027f0000000000000000000000000000000000000000000000000000000000000000610e8f9190614697565b610e999190614720565b8211610eb15769043c33c19375648000009050610f10565b600560047f0000000000000000000000000000000000000000000000000000000000000000610ee09190614697565b610eea9190614720565b8211610f0257690878678326eac90000009050610f10565b6910f0cf064dd59200000090505b919050565b6000610f208361194b565b8210610f61576040517f08c379a0000000000000000000000000000000000000000000000000000000008152600401610f58906147c3565b60405180910390fd5b600660008473ffffffffffffffffffffffffffffffffffffffff1673ffffffffffffffffffffffffffffffffffffffff168152602001908152602001600020600083815260200190815260200160002054905092915050565b600f8260128110610fca57600080fd5b018181548110610fd957600080fd5b9060005260206000209060209182820401919006915091509054906101000a900460ff1681565b611008612354565b73ffffffffffffffffffffffffffffffffffffffff16611026611a8b565b73ffffffffffffffffffffffffffffffffffffffff161461107c576040517f08c379a00000000000000000000000000000000000000000000000000000000081526004016110739061439f565b60405180910390fd5b80600b8190555050565b6021826012811061109657600080fd5b0181815481106110a557600080fd5b9060005260206000209060209182820401919006915091509054906101000a900460ff1681565b6110d4612354565b73ffffffffffffffffffffffffffffffffffffffff166110f2611a8b565b73ffffffffffffffffffffffffffffffffffffffff1614611148576040517f08c379a000000000000000000000000000000000000000000000000000000000815260040161113f9061439f565b60405180910390fd5b611150611a8b565b73ffffffffffffffffffffffffffffffffffffffff166108fc479081150290604051600060405180830381858888f19350505050158015611195573d6000803e3d6000fd5b50565b6000600b54905090565b6111bd83838360405180602001604052806000815250611e54565b505050565b600c60009054906101000a900461ffff1681565b60006111e0610d82565b8210611221576040517f08c379a000000000000000000000000000000000000000000000000000000000815260040161121890614855565b60405180910390fd5b6008828154811061123557611234614875565b5b90600052602060002001549050919050565b6000600a60149054906101000a900460ff16905090565b6000806002600084815260200190815260200160002060009054906101000a900473ffffffffffffffffffffffffffffffffffffffff169050600073ffffffffffffffffffffffffffffffffffffffff168173ffffffffffffffffffffffffffffffffffffffff161415611307576040517f08c379a00000000000000000000000000000000000000000000000000000000081526004016112fe90614916565b60405180910390fd5b80915050919050565b611318611247565b15611358576040517f08c379a000000000000000000000000000000000000000000000000000000000815260040161134f90614982565b60405180910390fd5b611360612354565b73ffffffffffffffffffffffffffffffffffffffff163273ffffffffffffffffffffffffffffffffffffffff16146113cd576040517f08c379a00000000000000000000000000000000000000000000000000000000081526004016113c4906149ee565b60405180910390fd5b7f000000000000000000000000000000000000000000000000000000000000000082600c60009054906101000a900461ffff1661ffff1661140e9190614a0e565b111561144f576040517f08c379a000000000000000000000000000000000000000000000000000000000815260040161144690614ab0565b60405180910390fd5b6000821180156114605750600a8211155b61149f576040517f08c379a000000000000000000000000000000000000000000000000000000000815260040161149690614b1c565b60405180910390fd5b600b54600c60009054906101000a900461ffff1661ffff16101561157857600b5482600c60009054906101000a900461ffff1661ffff166114e09190614a0e565b1115611521576040517f08c379a000000000000000000000000000000000000000000000000000000000815260040161151890614b88565b60405180910390fd5b3464e8d4a51000836115339190614697565b14611573576040517f08c379a000000000000000000000000000000000000000000000000000000000815260040161156a90614bf4565b60405180910390fd5b611586565b6000341461158557600080fd5b5b600080826115dd57600067ffffffffffffffff8111156115a9576115a861408d565b5b6040519080825280602002602001820160405280156115d75781602001602082028036833780820191505090505b50611627565b8367ffffffffffffffff8111156115f7576115f661408d565b5b6040519080825280602002602001820160405280156116255781602001602082028036833780820191505090505b505b9050600080600090505b858110156117e057600c600081819054906101000a900461ffff168092919061165990614c14565b91906101000a81548161ffff021916908361ffff16021790555050611691600c60009054906101000a900461ffff1661ffff16612900565b91506116b1600c60009054906101000a900461ffff1661ffff1683612946565b5060006116bd83612b1f565b90508515806116ff57506116cf612354565b73ffffffffffffffffffffffffffffffffffffffff168173ffffffffffffffffffffffffffffffffffffffff1614155b156117275761172281600c60009054906101000a900461ffff1661ffff16612c6d565b6117a2565b611767603360009054906101000a900473ffffffffffffffffffffffffffffffffffffffff16600c60009054906101000a900461ffff1661ffff16612c6d565b600c60009054906101000a900461ffff1684838151811061178b5761178a614875565b5b602002602001019061ffff16908161ffff16815250505b6117bf600c60009054906101000a900461ffff1661ffff16610e4c565b856117ca9190614a0e565b94505080806117d890614c3f565b915050611631565b50600083111561188157603460009054906101000a900473ffffffffffffffffffffffffffffffffffffffff1673ffffffffffffffffffffffffffffffffffffffff16639dc29fac611830612354565b856040518363ffffffff1660e01b815260040161184e929190614c88565b600060405180830381600087803b15801561186857600080fd5b505af115801561187c573d6000803e3d6000fd5b505050505b831561191e57603360009054906101000a900473ffffffffffffffffffffffffffffffffffffffff1673ffffffffffffffffffffffffffffffffffffffff1663fdf8569f6118cd612354565b846040518363ffffffff1660e01b81526004016118eb929190614d6f565b600060405180830381600087803b15801561190557600080fd5b505af1158015611919573d6000803e3d6000fd5b505050505b5050505050565b603460009054906101000a900473ffffffffffffffffffffffffffffffffffffffff1681565b60008073ffffffffffffffffffffffffffffffffffffffff168273ffffffffffffffffffffffffffffffffffffffff1614156119bc576040517f08c379a00000000000000000000000000000000000000000000000000000000081526004016119b390614e11565b60405180910390fd5b600360008373ffffffffffffffffffffffffffffffffffffffff1673ffffffffffffffffffffffffffffffffffffffff168152602001908152602001600020549050919050565b611a0b612354565b73ffffffffffffffffffffffffffffffffffffffff16611a29611a8b565b73ffffffffffffffffffffffffffffffffffffffff1614611a7f576040517f08c379a0000000000000000000000000000000000000000000000000000000008152600401611a769061439f565b60405180910390fd5b611a896000612c8b565b565b6000600a60009054906101000a900473ffffffffffffffffffffffffffffffffffffffff16905090565b611abd613970565b600d6000838152602001908152602001600020604051806101400160405290816000820160009054906101000a900460ff161515151581526020016000820160019054906101000a900460ff1660ff1660ff1681526020016000820160029054906101000a900460ff1660ff1660ff1681526020016000820160039054906101000a900460ff1660ff1660ff1681526020016000820160049054906101000a900460ff1660ff1660ff1681526020016000820160059054906101000a900460ff1660ff1660ff1681526020016000820160069054906101000a900460ff1660ff1660ff1681526020016000820160079054906101000a900460ff1660ff1660ff1681526020016000820160089054906101000a900460ff1660ff1660ff1681526020016000820160099054906101000a900460ff1660ff1660ff16815250509050919050565b606060018054611c12906143ee565b80601f0160208091040260200160405190810160405280929190818152602001828054611c3e906143ee565b8015611c8b5780601f10611c6057610100808354040283529160200191611c8b565b820191906000526020600020905b815481529060010190602001808311611c6e57829003601f168201915b5050505050905090565b603360009054906101000a900473ffffffffffffffffffffffffffffffffffffffff1681565b600e6020528060005260406000206000915090505481565b611cdb612354565b73ffffffffffffffffffffffffffffffffffffffff168273ffffffffffffffffffffffffffffffffffffffff161415611d49576040517f08c379a0000000000000000000000000000000000000000000000000000000008152600401611d4090614e7d565b60405180910390fd5b8060056000611d56612354565b73ffffffffffffffffffffffffffffffffffffffff1673ffffffffffffffffffffffffffffffffffffffff16815260200190815260200160002060008473ffffffffffffffffffffffffffffffffffffffff1673ffffffffffffffffffffffffffffffffffffffff16815260200190815260200160002060006101000a81548160ff0219169083151502179055508173ffffffffffffffffffffffffffffffffffffffff16611e03612354565b73ffffffffffffffffffffffffffffffffffffffff167f17307eab39ab6107e8899845ad3d59bd9653f200f220920489ca2b5937696c3183604051611e489190613a94565b60405180910390a35050565b611e65611e5f612354565b836125c6565b611ea4576040517f08c379a0000000000000000000000000000000000000000000000000000000008152600401611e9b90614648565b60405180910390fd5b611eb084848484612d51565b50505050565b64e8d4a5100081565b600b5481565b6060611ed08261235c565b611f0f576040517f08c379a0000000000000000000000000000000000000000000000000000000008152600401611f0690614f0f565b60405180910390fd5b603560009054906101000a900473ffffffffffffffffffffffffffffffffffffffff1673ffffffffffffffffffffffffffffffffffffffff1663c87b56dd836040518263ffffffff1660e01b8152600401611f6a9190613d2a565b60006040518083038186803b158015611f8257600080fd5b505afa158015611f96573d6000803e3d6000fd5b505050506040513d6000823e3d601f19601f82011682018060405250810190611fbf9190614fd0565b9050919050565b600d6020528060005260406000206000915090508060000160009054906101000a900460ff16908060000160019054906101000a900460ff16908060000160029054906101000a900460ff16908060000160039054906101000a900460ff16908060000160049054906101000a900460ff16908060000160059054906101000a900460ff16908060000160069054906101000a900460ff16908060000160079054906101000a900460ff16908060000160089054906101000a900460ff16908060000160099054906101000a900460ff1690508a565b603560009054906101000a900473ffffffffffffffffffffffffffffffffffffffff1681565b6000600560008473ffffffffffffffffffffffffffffffffffffffff1673ffffffffffffffffffffffffffffffffffffffff16815260200190815260200160002060008373ffffffffffffffffffffffffffffffffffffffff1673ffffffffffffffffffffffffffffffffffffffff16815260200190815260200160002060009054906101000a900460ff16905092915050565b61215e612354565b73ffffffffffffffffffffffffffffffffffffffff1661217c611a8b565b73ffffffffffffffffffffffffffffffffffffffff16146121d2576040517f08c379a00000000000000000000000000000000000000000000000000000000081526004016121c99061439f565b60405180910390fd5b600073ffffffffffffffffffffffffffffffffffffffff168173ffffffffffffffffffffffffffffffffffffffff161415612242576040517f08c379a00000000000000000000000000000000000000000000000000000000081526004016122399061508b565b60405180910390fd5b61224b81612c8b565b50565b7f000000000000000000000000000000000000000000000000000000000000000081565b60007f80ac58cd000000000000000000000000000000000000000000000000000000007bffffffffffffffffffffffffffffffffffffffffffffffffffffffff1916827bffffffffffffffffffffffffffffffffffffffffffffffffffffffff1916148061233d57507f5b5e139f000000000000000000000000000000000000000000000000000000007bffffffffffffffffffffffffffffffffffffffffffffffffffffffff1916827bffffffffffffffffffffffffffffffffffffffffffffffffffffffff1916145b8061234d575061234c82612dad565b5b9050919050565b600033905090565b60008073ffffffffffffffffffffffffffffffffffffffff166002600084815260200190815260200160002060009054906101000a900473ffffffffffffffffffffffffffffffffffffffff1673ffffffffffffffffffffffffffffffffffffffff1614159050919050565b816004600083815260200190815260200160002060006101000a81548173ffffffffffffffffffffffffffffffffffffffff021916908373ffffffffffffffffffffffffffffffffffffffff160217905550808273ffffffffffffffffffffffffffffffffffffffff1661243b8361125e565b73ffffffffffffffffffffffffffffffffffffffff167f8c5be1e5ebec7d5bd14f71427d1e84f3dd0314c0f7b2291e5b200ac8c7c3b92560405160405180910390a45050565b612489611247565b156124c9576040517f08c379a00000000000000000000000000000000000000000000000000000000081526004016124c090614982565b60405180910390fd5b6001600a60146101000a81548160ff0219169083151502179055507f62e78cea01bee320cd4e420270b5ea74000d11b0c9f74754ebdbfc544b05a25861250d612354565b60405161251a9190613c67565b60405180910390a1565b61252c611247565b61256b576040517f08c379a0000000000000000000000000000000000000000000000000000000008152600401612562906150f7565b60405180910390fd5b6000600a60146101000a81548160ff0219169083151502179055507f5db9ee0a495bf2e6ff9c91a7834c1ba4fdd244a5e8aa4e537bd38aeae4b073aa6125af612354565b6040516125bc9190613c67565b60405180910390a1565b60006125d18261235c565b612610576040517f08c379a000000000000000000000000000000000000000000000000000000000815260040161260790615189565b60405180910390fd5b600061261b8361125e565b90508073ffffffffffffffffffffffffffffffffffffffff168473ffffffffffffffffffffffffffffffffffffffff16148061268a57508373ffffffffffffffffffffffffffffffffffffffff1661267284610b4a565b73ffffffffffffffffffffffffffffffffffffffff16145b8061269b575061269a81856120c2565b5b91505092915050565b8273ffffffffffffffffffffffffffffffffffffffff166126c48261125e565b73ffffffffffffffffffffffffffffffffffffffff161461271a576040517f08c379a00000000000000000000000000000000000000000000000000000000081526004016127119061521b565b60405180910390fd5b600073ffffffffffffffffffffffffffffffffffffffff168273ffffffffffffffffffffffffffffffffffffffff16141561278a576040517f08c379a0000000000000000000000000000000000000000000000000000000008152600401612781906152ad565b60405180910390fd5b612795838383612e17565b6127a06000826123c8565b6001600360008573ffffffffffffffffffffffffffffffffffffffff1673ffffffffffffffffffffffffffffffffffffffff16815260200190815260200160002060008282546127f091906152cd565b925050819055506001600360008473ffffffffffffffffffffffffffffffffffffffff1673ffffffffffffffffffffffffffffffffffffffff16815260200190815260200160002060008282546128479190614a0e565b92505081905550816002600083815260200190815260200160002060006101000a81548173ffffffffffffffffffffffffffffffffffffffff021916908373ffffffffffffffffffffffffffffffffffffffff160217905550808273ffffffffffffffffffffffffffffffffffffffff168473ffffffffffffffffffffffffffffffffffffffff167fddf252ad1be2c89b69c2b068fc378daa952ba7f163c4a11628f55a4df523b3ef60405160405180910390a4505050565b60003260014361291091906152cd565b4042846040516020016129269493929190615395565b6040516020818303038152906040528051906020012060001c9050919050565b61294e613970565b61295782612f2b565b90506000600e600061296884613138565b8152602001908152602001600020541415612b045780600d600085815260200190815260200160002060008201518160000160006101000a81548160ff02191690831515021790555060208201518160000160016101000a81548160ff021916908360ff16021790555060408201518160000160026101000a81548160ff021916908360ff16021790555060608201518160000160036101000a81548160ff021916908360ff16021790555060808201518160000160046101000a81548160ff021916908360ff16021790555060a08201518160000160056101000a81548160ff021916908360ff16021790555060c08201518160000160066101000a81548160ff021916908360ff16021790555060e08201518160000160076101000a81548160ff021916908360ff1602179055506101008201518160000160086101000a81548160ff021916908360ff1602179055506101208201518160000160096101000a81548160ff021916908360ff16021790555090505082600e6000612aed84613138565b815260200190815260200160002081905550612b19565b612b1683612b1184612900565b612946565b90505b92915050565b6000600b54600c60009054906101000a900461ffff1661ffff16111580612b5757506000600a60f584901c612b5491906153e3565b14155b15612b6b57612b64612354565b9050612c68565b6000603360009054906101000a900473ffffffffffffffffffffffffffffffffffffffff1673ffffffffffffffffffffffffffffffffffffffff1663fb59dfa6609085901c6040518263ffffffff1660e01b8152600401612bcc9190613d2a565b60206040518083038186803b158015612be457600080fd5b505afa158015612bf8573d6000803e3d6000fd5b505050506040513d601f19601f82011682018060405250810190612c1c9190615429565b9050600073ffffffffffffffffffffffffffffffffffffffff168173ffffffffffffffffffffffffffffffffffffffff161415612c6357612c5b612354565b915050612c68565b809150505b919050565b612c878282604051806020016040528060008152506131a3565b5050565b6000600a60009054906101000a900473ffffffffffffffffffffffffffffffffffffffff16905081600a60006101000a81548173ffffffffffffffffffffffffffffffffffffffff021916908373ffffffffffffffffffffffffffffffffffffffff1602179055508173ffffffffffffffffffffffffffffffffffffffff168173ffffffffffffffffffffffffffffffffffffffff167f8be0079c531659141344cd1fd0a4f28419497f9722a3daafe3b4186f6b6457e060405160405180910390a35050565b612d5c8484846126a4565b612d68848484846131fe565b612da7576040517f08c379a0000000000000000000000000000000000000000000000000000000008152600401612d9e906154c8565b60405180910390fd5b50505050565b60007f01ffc9a7000000000000000000000000000000000000000000000000000000007bffffffffffffffffffffffffffffffffffffffffffffffffffffffff1916827bffffffffffffffffffffffffffffffffffffffffffffffffffffffff1916149050919050565b612e22838383613395565b600073ffffffffffffffffffffffffffffffffffffffff168373ffffffffffffffffffffffffffffffffffffffff161415612e6557612e608161339a565b612ea4565b8173ffffffffffffffffffffffffffffffffffffffff168373ffffffffffffffffffffffffffffffffffffffff1614612ea357612ea283826133e3565b5b5b600073ffffffffffffffffffffffffffffffffffffffff168273ffffffffffffffffffffffffffffffffffffffff161415612ee757612ee281613550565b612f26565b8273ffffffffffffffffffffffffffffffffffffffff168273ffffffffffffffffffffffffffffffffffffffff1614612f2557612f248282613621565b5b5b505050565b612f33613970565b6000600a61ffff8416612f4691906153e3565b141581600001901515908115158152505060008160000151612f69576009612f6c565b60005b9050601083901c9250612f8f61ffff8416826000612f8a91906154e8565b6136a0565b826020019060ff16908160ff1681525050601083901c9250612fc161ffff8416826001612fbc91906154e8565b6136a0565b826040019060ff16908160ff1681525050601083901c9250612ff361ffff8416826002612fee91906154e8565b6136a0565b826060019060ff16908160ff1681525050601083901c925061302561ffff841682600361302091906154e8565b6136a0565b826080019060ff16908160ff1681525050601083901c925061305761ffff841682600461305291906154e8565b6136a0565b8260a0019060ff16908160ff1681525050601083901c925061308961ffff841682600561308491906154e8565b6136a0565b8260c0019060ff16908160ff1681525050601083901c92506130bb61ffff84168260066130b691906154e8565b6136a0565b8260e0019060ff16908160ff1681525050601083901c92506130ed61ffff84168260076130e891906154e8565b6136a0565b82610100019060ff16908160ff1681525050601083901c925061312061ffff841682600861311b91906154e8565b6136a0565b82610120019060ff16908160ff168152505050919050565b600081600001518260200151836040015184608001518560c001518660e0015187606001518861010001518961012001516040516020016131819998979695949392919061557e565b6040516020818303038152906040526131999061565e565b60001c9050919050565b6131ad838361378f565b6131ba60008484846131fe565b6131f9576040517f08c379a00000000000000000000000000000000000000000000000000000000081526004016131f0906154c8565b60405180910390fd5b505050565b600061321f8473ffffffffffffffffffffffffffffffffffffffff1661395d565b15613388578373ffffffffffffffffffffffffffffffffffffffff1663150b7a02613248612354565b8786866040518563ffffffff1660e01b815260040161326a949392919061570f565b602060405180830381600087803b15801561328457600080fd5b505af19250505080156132b557506040513d601f19601f820116820180604052508101906132b29190615770565b60015b613338573d80600081146132e5576040519150601f19603f3d011682016040523d82523d6000602084013e6132ea565b606091505b50600081511415613330576040517f08c379a0000000000000000000000000000000000000000000000000000000008152600401613327906154c8565b60405180910390fd5b805181602001fd5b63150b7a0260e01b7bffffffffffffffffffffffffffffffffffffffffffffffffffffffff1916817bffffffffffffffffffffffffffffffffffffffffffffffffffffffff19161491505061338d565b600190505b949350505050565b505050565b6008805490506009600083815260200190815260200160002081905550600881908060018154018082558091505060019003906000526020600020016000909190919091505550565b600060016133f08461194b565b6133fa91906152cd565b90506000600760008481526020019081526020016000205490508181146134df576000600660008673ffffffffffffffffffffffffffffffffffffffff1673ffffffffffffffffffffffffffffffffffffffff168152602001908152602001600020600084815260200190815260200160002054905080600660008773ffffffffffffffffffffffffffffffffffffffff1673ffffffffffffffffffffffffffffffffffffffff168152602001908152602001600020600084815260200190815260200160002081905550816007600083815260200190815260200160002081905550505b6007600084815260200190815260200160002060009055600660008573ffffffffffffffffffffffffffffffffffffffff1673ffffffffffffffffffffffffffffffffffffffff16815260200190815260200160002060008381526020019081526020016000206000905550505050565b6000600160088054905061356491906152cd565b905060006009600084815260200190815260200160002054905060006008838154811061359457613593614875565b5b9060005260206000200154905080600883815481106135b6576135b5614875565b5b9060005260206000200181905550816009600083815260200190815260200160002081905550600960008581526020019081526020016000206000905560088054806136055761360461579d565b5b6001900381819060005260206000200160009055905550505050565b600061362c8361194b565b905081600660008573ffffffffffffffffffffffffffffffffffffffff1673ffffffffffffffffffffffffffffffffffffffff168152602001908152602001600020600083815260200190815260200160002081905550806007600084815260200190815260200160002081905550505050565b600080600f8360ff16601281106136ba576136b9614875565b5b0180549050846136ca91906157cc565b9050600f8360ff16601281106136e3576136e2614875565b5b018160ff16815481106136f9576136f8614875565b5b90600052602060002090602091828204019190069054906101000a900460ff1660ff1660088561ffff16901c61ffff1610156137385780915050613789565b60218360ff166012811061374f5761374e614875565b5b018160ff168154811061376557613764614875565b5b90600052602060002090602091828204019190069054906101000a900460ff169150505b92915050565b600073ffffffffffffffffffffffffffffffffffffffff168273ffffffffffffffffffffffffffffffffffffffff1614156137ff576040517f08c379a00000000000000000000000000000000000000000000000000000000081526004016137f690615849565b60405180910390fd5b6138088161235c565b15613848576040517f08c379a000000000000000000000000000000000000000000000000000000000815260040161383f906158b5565b60405180910390fd5b61385460008383612e17565b6001600360008473ffffffffffffffffffffffffffffffffffffffff1673ffffffffffffffffffffffffffffffffffffffff16815260200190815260200160002060008282546138a49190614a0e565b92505081905550816002600083815260200190815260200160002060006101000a81548173ffffffffffffffffffffffffffffffffffffffff021916908373ffffffffffffffffffffffffffffffffffffffff160217905550808273ffffffffffffffffffffffffffffffffffffffff16600073ffffffffffffffffffffffffffffffffffffffff167fddf252ad1be2c89b69c2b068fc378daa952ba7f163c4a11628f55a4df523b3ef60405160405180910390a45050565b600080823b905060008111915050919050565b604051806101400160405280600015158152602001600060ff168152602001600060ff168152602001600060ff168152602001600060ff168152602001600060ff168152602001600060ff168152602001600060ff168152602001600060ff168152602001600060ff1681525090565b6000604051905090565b600080fd5b600080fd5b60007fffffffff0000000000000000000000000000000000000000000000000000000082169050919050565b613a29816139f4565b8114613a3457600080fd5b50565b600081359050613a4681613a20565b92915050565b600060208284031215613a6257613a616139ea565b5b6000613a7084828501613a37565b91505092915050565b60008115159050919050565b613a8e81613a79565b82525050565b6000602082019050613aa96000830184613a85565b92915050565b600073ffffffffffffffffffffffffffffffffffffffff82169050919050565b6000613ada82613aaf565b9050919050565b613aea81613acf565b8114613af557600080fd5b50565b600081359050613b0781613ae1565b92915050565b600060208284031215613b2357613b226139ea565b5b6000613b3184828501613af8565b91505092915050565b600081519050919050565b600082825260208201905092915050565b60005b83811015613b74578082015181840152602081019050613b59565b83811115613b83576000848401525b50505050565b6000601f19601f8301169050919050565b6000613ba582613b3a565b613baf8185613b45565b9350613bbf818560208601613b56565b613bc881613b89565b840191505092915050565b60006020820190508181036000830152613bed8184613b9a565b905092915050565b6000819050919050565b613c0881613bf5565b8114613c1357600080fd5b50565b600081359050613c2581613bff565b92915050565b600060208284031215613c4157613c406139ea565b5b6000613c4f84828501613c16565b91505092915050565b613c6181613acf565b82525050565b6000602082019050613c7c6000830184613c58565b92915050565b60008060408385031215613c9957613c986139ea565b5b6000613ca785828601613af8565b9250506020613cb885828601613c16565b9150509250929050565b613ccb81613a79565b8114613cd657600080fd5b50565b600081359050613ce881613cc2565b92915050565b600060208284031215613d0457613d036139ea565b5b6000613d1284828501613cd9565b91505092915050565b613d2481613bf5565b82525050565b6000602082019050613d3f6000830184613d1b565b92915050565b600080600060608486031215613d5e57613d5d6139ea565b5b6000613d6c86828701613af8565b9350506020613d7d86828701613af8565b9250506040613d8e86828701613c16565b9150509250925092565b60008060408385031215613daf57613dae6139ea565b5b6000613dbd85828601613c16565b9250506020613dce85828601613c16565b9150509250929050565b600060ff82169050919050565b613dee81613dd8565b82525050565b6000602082019050613e096000830184613de5565b92915050565b600061ffff82169050919050565b613e2681613e0f565b82525050565b6000602082019050613e416000830184613e1d565b92915050565b60008060408385031215613e5e57613e5d6139ea565b5b6000613e6c85828601613c16565b9250506020613e7d85828601613cd9565b9150509250929050565b6000819050919050565b6000613eac613ea7613ea284613aaf565b613e87565b613aaf565b9050919050565b6000613ebe82613e91565b9050919050565b6000613ed082613eb3565b9050919050565b613ee081613ec5565b82525050565b6000602082019050613efb6000830184613ed7565b92915050565b613f0a81613a79565b82525050565b613f1981613dd8565b82525050565b61014082016000820151613f366000850182613f01565b506020820151613f496020850182613f10565b506040820151613f5c6040850182613f10565b506060820151613f6f6060850182613f10565b506080820151613f826080850182613f10565b5060a0820151613f9560a0850182613f10565b5060c0820151613fa860c0850182613f10565b5060e0820151613fbb60e0850182613f10565b50610100820151613fd0610100850182613f10565b50610120820151613fe5610120850182613f10565b50505050565b6000610140820190506140016000830184613f1f565b92915050565b600061401282613eb3565b9050919050565b61402281614007565b82525050565b600060208201905061403d6000830184614019565b92915050565b6000806040838503121561405a576140596139ea565b5b600061406885828601613af8565b925050602061407985828601613cd9565b9150509250929050565b600080fd5b600080fd5b7f4e487b7100000000000000000000000000000000000000000000000000000000600052604160045260246000fd5b6140c582613b89565b810181811067ffffffffffffffff821117156140e4576140e361408d565b5b80604052505050565b60006140f76139e0565b905061410382826140bc565b919050565b600067ffffffffffffffff8211156141235761412261408d565b5b61412c82613b89565b9050602081019050919050565b82818337600083830152505050565b600061415b61415684614108565b6140ed565b90508281526020810184848401111561417757614176614088565b5b614182848285614139565b509392505050565b600082601f83011261419f5761419e614083565b5b81356141af848260208601614148565b91505092915050565b600080600080608085870312156141d2576141d16139ea565b5b60006141e087828801613af8565b94505060206141f187828801613af8565b935050604061420287828801613c16565b925050606085013567ffffffffffffffff811115614223576142226139ef565b5b61422f8782880161418a565b91505092959194509250565b600061014082019050614251600083018d613a85565b61425e602083018c613de5565b61426b604083018b613de5565b614278606083018a613de5565b6142856080830189613de5565b61429260a0830188613de5565b61429f60c0830187613de5565b6142ac60e0830186613de5565b6142ba610100830185613de5565b6142c8610120830184613de5565b9b9a5050505050505050505050565b60006142e282613eb3565b9050919050565b6142f2816142d7565b82525050565b600060208201905061430d60008301846142e9565b92915050565b6000806040838503121561432a576143296139ea565b5b600061433885828601613af8565b925050602061434985828601613af8565b9150509250929050565b7f4f776e61626c653a2063616c6c6572206973206e6f7420746865206f776e6572600082015250565b6000614389602083613b45565b915061439482614353565b602082019050919050565b600060208201905081810360008301526143b88161437c565b9050919050565b7f4e487b7100000000000000000000000000000000000000000000000000000000600052602260045260246000fd5b6000600282049050600182168061440657607f821691505b6020821081141561441a576144196143bf565b5b50919050565b7f4552433732313a20617070726f76656420717565727920666f72206e6f6e657860008201527f697374656e7420746f6b656e0000000000000000000000000000000000000000602082015250565b600061447c602c83613b45565b915061448782614420565b604082019050919050565b600060208201905081810360008301526144ab8161446f565b9050919050565b7f4552433732313a20617070726f76616c20746f2063757272656e74206f776e6560008201527f7200000000000000000000000000000000000000000000000000000000000000602082015250565b600061450e602183613b45565b9150614519826144b2565b604082019050919050565b6000602082019050818103600083015261453d81614501565b9050919050565b7f4552433732313a20617070726f76652063616c6c6572206973206e6f74206f7760008201527f6e6572206e6f7220617070726f76656420666f7220616c6c0000000000000000602082015250565b60006145a0603883613b45565b91506145ab82614544565b604082019050919050565b600060208201905081810360008301526145cf81614593565b9050919050565b7f4552433732313a207472616e736665722063616c6c6572206973206e6f74206f60008201527f776e6572206e6f7220617070726f766564000000000000000000000000000000602082015250565b6000614632603183613b45565b915061463d826145d6565b604082019050919050565b6000602082019050818103600083015261466181614625565b9050919050565b7f4e487b7100000000000000000000000000000000000000000000000000000000600052601160045260246000fd5b60006146a282613bf5565b91506146ad83613bf5565b9250817fffffffffffffffffffffffffffffffffffffffffffffffffffffffffffffffff04831182151516156146e6576146e5614668565b5b828202905092915050565b7f4e487b7100000000000000000000000000000000000000000000000000000000600052601260045260246000fd5b600061472b82613bf5565b915061473683613bf5565b925082614746576147456146f1565b5b828204905092915050565b7f455243373231456e756d657261626c653a206f776e657220696e646578206f7560008201527f74206f6620626f756e6473000000000000000000000000000000000000000000602082015250565b60006147ad602b83613b45565b91506147b882614751565b604082019050919050565b600060208201905081810360008301526147dc816147a0565b9050919050565b7f455243373231456e756d657261626c653a20676c6f62616c20696e646578206f60008201527f7574206f6620626f756e64730000000000000000000000000000000000000000602082015250565b600061483f602c83613b45565b915061484a826147e3565b604082019050919050565b6000602082019050818103600083015261486e81614832565b9050919050565b7f4e487b7100000000000000000000000000000000000000000000000000000000600052603260045260246000fd5b7f4552433732313a206f776e657220717565727920666f72206e6f6e657869737460008201527f656e7420746f6b656e0000000000000000000000000000000000000000000000602082015250565b6000614900602983613b45565b915061490b826148a4565b604082019050919050565b6000602082019050818103600083015261492f816148f3565b9050919050565b7f5061757361626c653a2070617573656400000000000000000000000000000000600082015250565b600061496c601083613b45565b915061497782614936565b602082019050919050565b6000602082019050818103600083015261499b8161495f565b9050919050565b7f4f6e6c7920454f41000000000000000000000000000000000000000000000000600082015250565b60006149d8600883613b45565b91506149e3826149a2565b602082019050919050565b60006020820190508181036000830152614a07816149cb565b9050919050565b6000614a1982613bf5565b9150614a2483613bf5565b9250827fffffffffffffffffffffffffffffffffffffffffffffffffffffffffffffffff03821115614a5957614a58614668565b5b828201905092915050565b7f416c6c20746f6b656e73206d696e746564000000000000000000000000000000600082015250565b6000614a9a601183613b45565b9150614aa582614a64565b602082019050919050565b60006020820190508181036000830152614ac981614a8d565b9050919050565b7f496e76616c6964206d696e7420616d6f756e7400000000000000000000000000600082015250565b6000614b06601383613b45565b9150614b1182614ad0565b602082019050919050565b60006020820190508181036000830152614b3581614af9565b9050919050565b7f416c6c20746f6b656e73206f6e2d73616c6520616c726561647920736f6c6400600082015250565b6000614b72601f83613b45565b9150614b7d82614b3c565b602082019050919050565b60006020820190508181036000830152614ba181614b65565b9050919050565b7f496e76616c6964207061796d656e7420616d6f756e7400000000000000000000600082015250565b6000614bde601683613b45565b9150614be982614ba8565b602082019050919050565b60006020820190508181036000830152614c0d81614bd1565b9050919050565b6000614c1f82613e0f565b915061ffff821415614c3457614c33614668565b5b600182019050919050565b6000614c4a82613bf5565b91507fffffffffffffffffffffffffffffffffffffffffffffffffffffffffffffffff821415614c7d57614c7c614668565b5b600182019050919050565b6000604082019050614c9d6000830185613c58565b614caa6020830184613d1b565b9392505050565b600081519050919050565b600082825260208201905092915050565b6000819050602082019050919050565b614ce681613e0f565b82525050565b6000614cf88383614cdd565b60208301905092915050565b6000602082019050919050565b6000614d1c82614cb1565b614d268185614cbc565b9350614d3183614ccd565b8060005b83811015614d62578151614d498882614cec565b9750614d5483614d04565b925050600181019050614d35565b5085935050505092915050565b6000604082019050614d846000830185613c58565b8181036020830152614d968184614d11565b90509392505050565b7f4552433732313a2062616c616e636520717565727920666f7220746865207a6560008201527f726f206164647265737300000000000000000000000000000000000000000000602082015250565b6000614dfb602a83613b45565b9150614e0682614d9f565b604082019050919050565b60006020820190508181036000830152614e2a81614dee565b9050919050565b7f4552433732313a20617070726f766520746f2063616c6c657200000000000000600082015250565b6000614e67601983613b45565b9150614e7282614e31565b602082019050919050565b60006020820190508181036000830152614e9681614e5a565b9050919050565b7f4552433732314d657461646174613a2055524920717565727920666f72206e6f60008201527f6e6578697374656e7420746f6b656e0000000000000000000000000000000000602082015250565b6000614ef9602f83613b45565b9150614f0482614e9d565b604082019050919050565b60006020820190508181036000830152614f2881614eec565b9050919050565b600067ffffffffffffffff821115614f4a57614f4961408d565b5b614f5382613b89565b9050602081019050919050565b6000614f73614f6e84614f2f565b6140ed565b905082815260208101848484011115614f8f57614f8e614088565b5b614f9a848285613b56565b509392505050565b600082601f830112614fb757614fb6614083565b5b8151614fc7848260208601614f60565b91505092915050565b600060208284031215614fe657614fe56139ea565b5b600082015167ffffffffffffffff811115615004576150036139ef565b5b61501084828501614fa2565b91505092915050565b7f4f776e61626c653a206e6577206f776e657220697320746865207a65726f206160008201527f6464726573730000000000000000000000000000000000000000000000000000602082015250565b6000615075602683613b45565b915061508082615019565b604082019050919050565b600060208201905081810360008301526150a481615068565b9050919050565b7f5061757361626c653a206e6f7420706175736564000000000000000000000000600082015250565b60006150e1601483613b45565b91506150ec826150ab565b602082019050919050565b60006020820190508181036000830152615110816150d4565b9050919050565b7f4552433732313a206f70657261746f7220717565727920666f72206e6f6e657860008201527f697374656e7420746f6b656e0000000000000000000000000000000000000000602082015250565b6000615173602c83613b45565b915061517e82615117565b604082019050919050565b600060208201905081810360008301526151a281615166565b9050919050565b7f4552433732313a207472616e73666572206f6620746f6b656e2074686174206960008201527f73206e6f74206f776e0000000000000000000000000000000000000000000000602082015250565b6000615205602983613b45565b9150615210826151a9565b604082019050919050565b60006020820190508181036000830152615234816151f8565b9050919050565b7f4552433732313a207472616e7366657220746f20746865207a65726f2061646460008201527f7265737300000000000000000000000000000000000000000000000000000000602082015250565b6000615297602483613b45565b91506152a28261523b565b604082019050919050565b600060208201905081810360008301526152c68161528a565b9050919050565b60006152d882613bf5565b91506152e383613bf5565b9250828210156152f6576152f5614668565b5b828203905092915050565b60008160601b9050919050565b600061531982615301565b9050919050565b600061532b8261530e565b9050919050565b61534361533e82613acf565b615320565b82525050565b6000819050919050565b6000819050919050565b61536e61536982615349565b615353565b82525050565b6000819050919050565b61538f61538a82613bf5565b615374565b82525050565b60006153a18287615332565b6014820191506153b1828661535d565b6020820191506153c1828561537e565b6020820191506153d1828461537e565b60208201915081905095945050505050565b60006153ee82613bf5565b91506153f983613bf5565b925082615409576154086146f1565b5b828206905092915050565b60008151905061542381613ae1565b92915050565b60006020828403121561543f5761543e6139ea565b5b600061544d84828501615414565b91505092915050565b7f4552433732313a207472616e7366657220746f206e6f6e20455243373231526560008201527f63656976657220696d706c656d656e7465720000000000000000000000000000602082015250565b60006154b2603283613b45565b91506154bd82615456565b604082019050919050565b600060208201905081810360008301526154e1816154a5565b9050919050565b60006154f382613dd8565b91506154fe83613dd8565b92508260ff0382111561551457615513614668565b5b828201905092915050565b60008160f81b9050919050565b60006155378261551f565b9050919050565b60006155498261552c565b9050919050565b61556161555c82613a79565b61553e565b82525050565b61557861557382613dd8565b61552c565b82525050565b600061558a828c615550565b60018201915061559a828b615567565b6001820191506155aa828a615567565b6001820191506155ba8289615567565b6001820191506155ca8288615567565b6001820191506155da8287615567565b6001820191506155ea8286615567565b6001820191506155fa8285615567565b60018201915061560a8284615567565b6001820191508190509a9950505050505050505050565b600081519050919050565b6000819050602082019050919050565b60006156488251615349565b80915050919050565b600082821b905092915050565b600061566982615621565b826156738461562c565b905061567e8161563c565b925060208210156156be576156b97fffffffffffffffffffffffffffffffffffffffffffffffffffffffffffffffff83602003600802615651565b831692505b5050919050565b600082825260208201905092915050565b60006156e182615621565b6156eb81856156c5565b93506156fb818560208601613b56565b61570481613b89565b840191505092915050565b60006080820190506157246000830187613c58565b6157316020830186613c58565b61573e6040830185613d1b565b818103606083015261575081846156d6565b905095945050505050565b60008151905061576a81613a20565b92915050565b600060208284031215615786576157856139ea565b5b60006157948482850161575b565b91505092915050565b7f4e487b7100000000000000000000000000000000000000000000000000000000600052603160045260246000fd5b60006157d782613dd8565b91506157e283613dd8565b9250826157f2576157f16146f1565b5b828206905092915050565b7f4552433732313a206d696e7420746f20746865207a65726f2061646472657373600082015250565b6000615833602083613b45565b915061583e826157fd565b602082019050919050565b6000602082019050818103600083015261586281615826565b9050919050565b7f4552433732313a20746f6b656e20616c7265616479206d696e74656400000000600082015250565b600061589f601c83613b45565b91506158aa82615869565b602082019050919050565b600060208201905081810360008301526158ce81615892565b905091905056fea2646970667358221220b064f932e90217e8138ec265f56c72a5137130ce5b9f06236aac6a79e6802ee564736f6c63430008090033",
  "linkReferences": {},
  "deployedLinkReferences": {}
}