{
  "_format": "hh-sol-artifact-1",
  "contractName": "Temple",
  "sourceName": "contracts/Temple.sol",
  "abi": [
    {
      "inputs": [
        {
          "internalType": "address",
          "name": "_god",
          "type": "address"
        },
        {
          "internalType": "address",
          "name": "_faith",
          "type": "address"
        }
      ],
      "stateMutability": "nonpayable",
      "type": "constructor"
    },
    {
      "anonymous": false,
      "inputs": [
        {
          "indexed": false,
          "internalType": "uint256",
          "name": "tokenId",
          "type": "uint256"
        },
        {
          "indexed": false,
          "internalType": "uint256",
          "name": "earned",
          "type": "uint256"
        },
        {
          "indexed": false,
          "internalType": "bool",
          "name": "unstaked",
          "type": "bool"
        }
      ],
      "name": "GodClaimed",
      "type": "event"
    },
    {
      "anonymous": false,
      "inputs": [
        {
          "indexed": true,
          "internalType": "address",
          "name": "previousOwner",
          "type": "address"
        },
        {
          "indexed": true,
          "internalType": "address",
          "name": "newOwner",
          "type": "address"
        }
      ],
      "name": "OwnershipTransferred",
      "type": "event"
    },
    {
      "anonymous": false,
      "inputs": [
        {
          "indexed": false,
          "internalType": "address",
          "name": "account",
          "type": "address"
        }
      ],
      "name": "Paused",
      "type": "event"
    },
    {
      "anonymous": false,
      "inputs": [
        {
          "indexed": false,
          "internalType": "address",
          "name": "owner",
          "type": "address"
        },
        {
          "indexed": false,
          "internalType": "uint256",
          "name": "tokenId",
          "type": "uint256"
        },
        {
          "indexed": false,
          "internalType": "uint256",
          "name": "value",
          "type": "uint256"
        }
      ],
      "name": "TokenStaked",
      "type": "event"
    },
    {
      "anonymous": false,
      "inputs": [
        {
          "indexed": false,
          "internalType": "address",
          "name": "account",
          "type": "address"
        }
      ],
      "name": "Unpaused",
      "type": "event"
    },
    {
      "anonymous": false,
      "inputs": [
        {
          "indexed": false,
          "internalType": "uint256",
          "name": "tokenId",
          "type": "uint256"
        },
        {
          "indexed": false,
          "internalType": "uint256",
          "name": "earned",
          "type": "uint256"
        },
        {
          "indexed": false,
          "internalType": "bool",
          "name": "unstaked",
          "type": "bool"
        }
      ],
      "name": "WorshipperClaimed",
      "type": "event"
    },
    {
      "inputs": [],
      "name": "DAILY_FAITH_RATE",
      "outputs": [
        {
          "internalType": "uint256",
          "name": "",
          "type": "uint256"
        }
      ],
      "stateMutability": "view",
      "type": "function"
    },
    {
      "inputs": [],
      "name": "FAITH_CLAIM_TAX_PERCENTAGE",
      "outputs": [
        {
          "internalType": "uint256",
          "name": "",
          "type": "uint256"
        }
      ],
      "stateMutability": "view",
      "type": "function"
    },
    {
      "inputs": [],
      "name": "MAXIMUM_GLOBAL_FAITH",
      "outputs": [
        {
          "internalType": "uint256",
          "name": "",
          "type": "uint256"
        }
      ],
      "stateMutability": "view",
      "type": "function"
    },
    {
      "inputs": [],
      "name": "MAX_ALPHA",
      "outputs": [
        {
          "internalType": "uint8",
          "name": "",
          "type": "uint8"
        }
      ],
      "stateMutability": "view",
      "type": "function"
    },
    {
      "inputs": [],
      "name": "MINIMUM_TO_EXIT",
      "outputs": [
        {
          "internalType": "uint256",
          "name": "",
          "type": "uint256"
        }
      ],
      "stateMutability": "view",
      "type": "function"
    },
    {
      "inputs": [
        {
          "internalType": "address",
          "name": "account",
          "type": "address"
        },
        {
          "internalType": "uint16[]",
          "name": "tokenIds",
          "type": "uint16[]"
        }
      ],
      "name": "addManyToTempleAndPantheon",
      "outputs": [],
      "stateMutability": "nonpayable",
      "type": "function"
    },
    {
      "inputs": [
        {
          "internalType": "uint16[]",
          "name": "tokenIds",
          "type": "uint16[]"
        },
        {
          "internalType": "bool",
          "name": "unstake",
          "type": "bool"
        }
      ],
      "name": "claimManyFromTempleAndPantheon",
      "outputs": [],
      "stateMutability": "nonpayable",
      "type": "function"
    },
    {
      "inputs": [],
      "name": "faithPerAlpha",
      "outputs": [
        {
          "internalType": "uint256",
          "name": "",
          "type": "uint256"
        }
      ],
      "stateMutability": "view",
      "type": "function"
    },
    {
      "inputs": [
        {
          "internalType": "uint256",
          "name": "tokenId",
          "type": "uint256"
        }
      ],
      "name": "isWorshipper",
      "outputs": [
        {
          "internalType": "bool",
          "name": "worshipper",
          "type": "bool"
        }
      ],
      "stateMutability": "view",
      "type": "function"
    },
    {
      "inputs": [],
      "name": "lastClaimTimestamp",
      "outputs": [
        {
          "internalType": "uint256",
          "name": "",
          "type": "uint256"
        }
      ],
      "stateMutability": "view",
      "type": "function"
    },
    {
      "inputs": [
        {
          "internalType": "address",
          "name": "",
          "type": "address"
        },
        {
          "internalType": "address",
          "name": "from",
          "type": "address"
        },
        {
          "internalType": "uint256",
          "name": "",
          "type": "uint256"
        },
        {
          "internalType": "bytes",
          "name": "",
          "type": "bytes"
        }
      ],
      "name": "onERC721Received",
      "outputs": [
        {
          "internalType": "bytes4",
          "name": "",
          "type": "bytes4"
        }
      ],
      "stateMutability": "pure",
      "type": "function"
    },
    {
      "inputs": [],
      "name": "owner",
      "outputs": [
        {
          "internalType": "address",
          "name": "",
          "type": "address"
        }
      ],
      "stateMutability": "view",
      "type": "function"
    },
    {
      "inputs": [
        {
          "internalType": "uint256",
          "name": "",
          "type": "uint256"
        },
        {
          "internalType": "uint256",
          "name": "",
          "type": "uint256"
        }
      ],
      "name": "pantheon",
      "outputs": [
        {
          "internalType": "uint16",
          "name": "tokenId",
          "type": "uint16"
        },
        {
          "internalType": "uint80",
          "name": "value",
          "type": "uint80"
        },
        {
          "internalType": "address",
          "name": "owner",
          "type": "address"
        }
      ],
      "stateMutability": "view",
      "type": "function"
    },
    {
      "inputs": [
        {
          "internalType": "uint256",
          "name": "",
          "type": "uint256"
        }
      ],
      "name": "pantheonIndices",
      "outputs": [
        {
          "internalType": "uint256",
          "name": "",
          "type": "uint256"
        }
      ],
      "stateMutability": "view",
      "type": "function"
    },
    {
      "inputs": [],
      "name": "paused",
      "outputs": [
        {
          "internalType": "bool",
          "name": "",
          "type": "bool"
        }
      ],
      "stateMutability": "view",
      "type": "function"
    },
    {
      "inputs": [
        {
          "internalType": "uint256",
          "name": "seed",
          "type": "uint256"
        }
      ],
      "name": "randomGodOwner",
      "outputs": [
        {
          "internalType": "address",
          "name": "",
          "type": "address"
        }
      ],
      "stateMutability": "view",
      "type": "function"
    },
    {
      "inputs": [],
      "name": "renounceOwnership",
      "outputs": [],
      "stateMutability": "nonpayable",
      "type": "function"
    },
    {
      "inputs": [
        {
          "internalType": "uint256[]",
          "name": "tokenIds",
          "type": "uint256[]"
        }
      ],
      "name": "rescue",
      "outputs": [],
      "stateMutability": "nonpayable",
      "type": "function"
    },
    {
      "inputs": [],
      "name": "rescueEnabled",
      "outputs": [
        {
          "internalType": "bool",
          "name": "",
          "type": "bool"
        }
      ],
      "stateMutability": "view",
      "type": "function"
    },
    {
      "inputs": [
        {
          "internalType": "bool",
          "name": "_paused",
          "type": "bool"
        }
      ],
      "name": "setPaused",
      "outputs": [],
      "stateMutability": "nonpayable",
      "type": "function"
    },
    {
      "inputs": [
        {
          "internalType": "bool",
          "name": "_enabled",
          "type": "bool"
        }
      ],
      "name": "setRescueEnabled",
      "outputs": [],
      "stateMutability": "nonpayable",
      "type": "function"
    },
    {
      "inputs": [
        {
          "internalType": "uint256",
          "name": "",
          "type": "uint256"
        }
      ],
      "name": "temple",
      "outputs": [
        {
          "internalType": "uint16",
          "name": "tokenId",
          "type": "uint16"
        },
        {
          "internalType": "uint80",
          "name": "value",
          "type": "uint80"
        },
        {
          "internalType": "address",
          "name": "owner",
          "type": "address"
        }
      ],
      "stateMutability": "view",
      "type": "function"
    },
    {
      "inputs": [],
      "name": "totalAlphaStaked",
      "outputs": [
        {
          "internalType": "uint256",
          "name": "",
          "type": "uint256"
        }
      ],
      "stateMutability": "view",
      "type": "function"
    },
    {
      "inputs": [],
      "name": "totalFaithEarned",
      "outputs": [
        {
          "internalType": "uint256",
          "name": "",
          "type": "uint256"
        }
      ],
      "stateMutability": "view",
      "type": "function"
    },
    {
      "inputs": [],
      "name": "totalWorshipperStaked",
      "outputs": [
        {
          "internalType": "uint256",
          "name": "",
          "type": "uint256"
        }
      ],
      "stateMutability": "view",
      "type": "function"
    },
    {
      "inputs": [
        {
          "internalType": "address",
          "name": "newOwner",
          "type": "address"
        }
      ],
      "name": "transferOwnership",
      "outputs": [],
      "stateMutability": "nonpayable",
      "type": "function"
    },
    {
      "inputs": [],
      "name": "unaccountedRewards",
      "outputs": [
        {
          "internalType": "uint256",
          "name": "",
          "type": "uint256"
        }
      ],
      "stateMutability": "view",
      "type": "function"
    }
  ],
  "bytecode": "0x60806040526000600655600060075560006008556000600c60006101000a81548160ff0219169083151502179055503480156200003b57600080fd5b50604051620045db380380620045db83398181016040528101906200006191906200025b565b62000081620000756200012560201b60201c565b6200012d60201b60201c565b60008060146101000a81548160ff02191690831515021790555081600160006101000a81548173ffffffffffffffffffffffffffffffffffffffff021916908373ffffffffffffffffffffffffffffffffffffffff16021790555080600260006101000a81548173ffffffffffffffffffffffffffffffffffffffff021916908373ffffffffffffffffffffffffffffffffffffffff1602179055505050620002a2565b600033905090565b60008060009054906101000a900473ffffffffffffffffffffffffffffffffffffffff169050816000806101000a81548173ffffffffffffffffffffffffffffffffffffffff021916908373ffffffffffffffffffffffffffffffffffffffff1602179055508173ffffffffffffffffffffffffffffffffffffffff168173ffffffffffffffffffffffffffffffffffffffff167f8be0079c531659141344cd1fd0a4f28419497f9722a3daafe3b4186f6b6457e060405160405180910390a35050565b600080fd5b600073ffffffffffffffffffffffffffffffffffffffff82169050919050565b60006200022382620001f6565b9050919050565b620002358162000216565b81146200024157600080fd5b50565b60008151905062000255816200022a565b92915050565b60008060408385031215620002755762000274620001f1565b5b6000620002858582860162000244565b9250506020620002988582860162000244565b9150509250929050565b61432980620002b26000396000f3fe608060405234801561001057600080fd5b50600436106101a95760003560e01c8063715018a6116100f9578063c0c472c011610097578063ec6b0ef811610071578063ec6b0ef81461048e578063f2fde38b146104c0578063fb59dfa6146104dc578063fdf8569f1461050c576101a9565b8063c0c472c014610434578063c4abe3c814610452578063dc4e575114610470576101a9565b80638924e26a116100d35780638924e26a146103ac5780638da5cb5b146103c8578063bbcb971c146103e6578063bcec356e14610416576101a9565b8063715018a614610356578063765310081461036057806379ee11f01461037c576101a9565b806340d8c6ce116101665780635c975abb116101405780635c975abb146102e0578063607af397146102fe5780636a3ef0571461031c5780636f25787514610338576101a9565b806340d8c6ce146102725780635a9a1f4d146102905780635b50f0e2146102c2576101a9565b8063150b7a02146101ae57806316c38b3c146101de5780631d7c75ee146101fa578063201ef2a41461021857806337a386b91461023657806339db714f14610254575b600080fd5b6101c860048036038101906101c391906130fd565b610528565b6040516101d591906131c0565b60405180910390f35b6101f860048036038101906101f39190613213565b6105ab565b005b610202610646565b60405161020f919061324f565b60405180910390f35b61022061064c565b60405161022d9190613286565b60405180910390f35b61023e610651565b60405161024b919061324f565b60405180910390f35b61025c610658565b60405161026991906132b0565b60405180910390f35b61027a61066b565b604051610287919061324f565b60405180910390f35b6102aa60048036038101906102a591906132cb565b610671565b6040516102b99392919061335c565b60405180910390f35b6102ca6106f8565b6040516102d7919061324f565b60405180910390f35b6102e86106fd565b6040516102f591906132b0565b60405180910390f35b610306610713565b604051610313919061324f565b60405180910390f35b610336600480360381019061033191906133e9565b610719565b005b610340610fba565b60405161034d919061324f565b60405180910390f35b61035e610fc0565b005b61037a60048036038101906103759190613213565b611048565b005b61039660048036038101906103919190613436565b6110e1565b6040516103a391906132b0565b60405180910390f35b6103c660048036038101906103c191906134b9565b6111c5565b005b6103d0611413565b6040516103dd9190613519565b60405180910390f35b61040060048036038101906103fb9190613436565b61143c565b60405161040d919061324f565b60405180910390f35b61041e611454565b60405161042b919061324f565b60405180910390f35b61043c611464565b604051610449919061324f565b60405180910390f35b61045a61146a565b604051610467919061324f565b60405180910390f35b610478611470565b604051610485919061324f565b60405180910390f35b6104a860048036038101906104a39190613436565b61147e565b6040516104b79392919061335c565b60405180910390f35b6104da60048036038101906104d59190613534565b6114ec565b005b6104f660048036038101906104f19190613436565b6115e4565b6040516105039190613519565b60405180910390f35b61052660048036038101906105219190613561565b611714565b005b60008073ffffffffffffffffffffffffffffffffffffffff168573ffffffffffffffffffffffffffffffffffffffff1614610598576040517f08c379a000000000000000000000000000000000000000000000000000000000815260040161058f90613644565b60405180910390fd5b63150b7a0260e01b905095945050505050565b6105b3611b59565b73ffffffffffffffffffffffffffffffffffffffff166105d1611413565b73ffffffffffffffffffffffffffffffffffffffff1614610627576040517f08c379a000000000000000000000000000000000000000000000000000000000815260040161061e906136b0565b60405180910390fd5b801561063a57610635611b61565b610643565b610642611c04565b5b50565b60095481565b600881565b6202a30081565b600c60009054906101000a900460ff1681565b60085481565b6004602052816000526040600020818154811061068d57600080fd5b90600052602060002001600091509150508060000160009054906101000a900461ffff16908060000160029054906101000a900469ffffffffffffffffffff169080600001600c9054906101000a900473ffffffffffffffffffffffffffffffffffffffff16905083565b601481565b60008060149054906101000a900460ff16905090565b600b5481565b600c60009054906101000a900460ff16610768576040517f08c379a000000000000000000000000000000000000000000000000000000000815260040161075f9061371c565b60405180910390fd5b6000610772612fb3565b61077a612fb3565b600080600090505b86869050811015610fb1578686828181106107a05761079f61373c565b5b9050602002013594506107b2856110e1565b15610a6157600360008681526020019081526020016000206040518060600160405290816000820160009054906101000a900461ffff1661ffff1661ffff1681526020016000820160029054906101000a900469ffffffffffffffffffff1669ffffffffffffffffffff1669ffffffffffffffffffff16815260200160008201600c9054906101000a900473ffffffffffffffffffffffffffffffffffffffff1673ffffffffffffffffffffffffffffffffffffffff1673ffffffffffffffffffffffffffffffffffffffff1681525050935061088d611b59565b73ffffffffffffffffffffffffffffffffffffffff16846040015173ffffffffffffffffffffffffffffffffffffffff16146108fe576040517f08c379a00000000000000000000000000000000000000000000000000000000081526004016108f5906137b7565b60405180910390fd5b600160009054906101000a900473ffffffffffffffffffffffffffffffffffffffff1673ffffffffffffffffffffffffffffffffffffffff1663b88d4fde30610945611b59565b886040518463ffffffff1660e01b81526004016109649392919061380e565b600060405180830381600087803b15801561097e57600080fd5b505af1158015610992573d6000803e3d6000fd5b5050505060036000868152602001908152602001600020600080820160006101000a81549061ffff02191690556000820160026101000a81549069ffffffffffffffffffff021916905560008201600c6101000a81549073ffffffffffffffffffffffffffffffffffffffff021916905550506001600a6000828254610a189190613887565b925050819055507f3efaa1c793d4acf878ebfe3bf87eb225f725baaf61017d5380c5bd2c95afa46d8560006001604051610a5493929190613900565b60405180910390a1610f9e565b610a6a85611ca5565b60ff16915060046000838152602001908152602001600020600560008781526020019081526020016000205481548110610aa757610aa661373c565b5b906000526020600020016040518060600160405290816000820160009054906101000a900461ffff1661ffff1661ffff1681526020016000820160029054906101000a900469ffffffffffffffffffff1669ffffffffffffffffffff1669ffffffffffffffffffff16815260200160008201600c9054906101000a900473ffffffffffffffffffffffffffffffffffffffff1673ffffffffffffffffffffffffffffffffffffffff1673ffffffffffffffffffffffffffffffffffffffff16815250509350610b74611b59565b73ffffffffffffffffffffffffffffffffffffffff16846040015173ffffffffffffffffffffffffffffffffffffffff1614610be5576040517f08c379a0000000000000000000000000000000000000000000000000000000008152600401610bdc906137b7565b60405180910390fd5b8160066000828254610bf79190613887565b92505081905550600160009054906101000a900473ffffffffffffffffffffffffffffffffffffffff1673ffffffffffffffffffffffffffffffffffffffff1663b88d4fde30610c45611b59565b886040518463ffffffff1660e01b8152600401610c649392919061380e565b600060405180830381600087803b158015610c7e57600080fd5b505af1158015610c92573d6000803e3d6000fd5b505050506004600083815260200190815260200160002060016004600085815260200190815260200160002080549050610ccc9190613887565b81548110610cdd57610cdc61373c565b5b906000526020600020016040518060600160405290816000820160009054906101000a900461ffff1661ffff1661ffff1681526020016000820160029054906101000a900469ffffffffffffffffffff1669ffffffffffffffffffff1669ffffffffffffffffffff16815260200160008201600c9054906101000a900473ffffffffffffffffffffffffffffffffffffffff1673ffffffffffffffffffffffffffffffffffffffff1673ffffffffffffffffffffffffffffffffffffffff168152505092508260046000848152602001908152602001600020600560008881526020019081526020016000205481548110610ddb57610dda61373c565b5b9060005260206000200160008201518160000160006101000a81548161ffff021916908361ffff16021790555060208201518160000160026101000a81548169ffffffffffffffffffff021916908369ffffffffffffffffffff160217905550604082015181600001600c6101000a81548173ffffffffffffffffffffffffffffffffffffffff021916908373ffffffffffffffffffffffffffffffffffffffff160217905550905050600560008681526020019081526020016000205460056000856000015161ffff1681526020019081526020016000208190555060046000838152602001908152602001600020805480610edb57610eda613937565b5b60019003818190600052602060002001600080820160006101000a81549061ffff02191690556000820160026101000a81549069ffffffffffffffffffff021916905560008201600c6101000a81549073ffffffffffffffffffffffffffffffffffffffff02191690555050905560056000868152602001908152602001600020600090557f4d125de39fffaf1ee931be1d030cafb2d6314a90d497c282b31355a75a993e738560006001604051610f9593929190613900565b60405180910390a15b8080610fa990613966565b915050610782565b50505050505050565b60065481565b610fc8611b59565b73ffffffffffffffffffffffffffffffffffffffff16610fe6611413565b73ffffffffffffffffffffffffffffffffffffffff161461103c576040517f08c379a0000000000000000000000000000000000000000000000000000000008152600401611033906136b0565b60405180910390fd5b6110466000611d74565b565b611050611b59565b73ffffffffffffffffffffffffffffffffffffffff1661106e611413565b73ffffffffffffffffffffffffffffffffffffffff16146110c4576040517f08c379a00000000000000000000000000000000000000000000000000000000081526004016110bb906136b0565b60405180910390fd5b80600c60006101000a81548160ff02191690831515021790555050565b6000600160009054906101000a900473ffffffffffffffffffffffffffffffffffffffff1673ffffffffffffffffffffffffffffffffffffffff1663e05c57bf836040518263ffffffff1660e01b815260040161113e919061324f565b6101406040518083038186803b15801561115757600080fd5b505afa15801561116b573d6000803e3d6000fd5b505050506040513d601f19601f8201168201806040525081019061118f91906139f0565b90919293949596975090919293949596509091929394955090919293945090919293509091925090915090505080915050919050565b6111cd6106fd565b1561120d576040517f08c379a000000000000000000000000000000000000000000000000000000000815260040161120490613b1b565b60405180910390fd5b6b07c13bc4b2c133c5600000006009541015611281576201518069021e19e0c9bab2400000600a54600b54426112439190613887565b61124d9190613b3b565b6112579190613b3b565b6112619190613bc4565b600960008282546112729190613bf5565b9250508190555042600b819055505b6000805b84849050811015611366576112c48585838181106112a6576112a561373c565b5b90506020020160208101906112bb9190613c77565b61ffff166110e1565b15611310576112fe8585838181106112df576112de61373c565b5b90506020020160208101906112f49190613c77565b61ffff1684611e38565b826113099190613bf5565b9150611353565b6113458585838181106113265761132561373c565b5b905060200201602081019061133b9190613c77565b61ffff1684612383565b826113509190613bf5565b91505b808061135e90613966565b915050611285565b506000811415611376575061140e565b600260009054906101000a900473ffffffffffffffffffffffffffffffffffffffff1673ffffffffffffffffffffffffffffffffffffffff166340c10f196113bc611b59565b836040518363ffffffff1660e01b81526004016113da929190613ca4565b600060405180830381600087803b1580156113f457600080fd5b505af1158015611408573d6000803e3d6000fd5b50505050505b505050565b60008060009054906101000a900473ffffffffffffffffffffffffffffffffffffffff16905090565b60056020528060005260406000206000915090505481565b6b07c13bc4b2c133c56000000081565b60075481565b600a5481565b69021e19e0c9bab240000081565b60036020528060005260406000206000915090508060000160009054906101000a900461ffff16908060000160029054906101000a900469ffffffffffffffffffff169080600001600c9054906101000a900473ffffffffffffffffffffffffffffffffffffffff16905083565b6114f4611b59565b73ffffffffffffffffffffffffffffffffffffffff16611512611413565b73ffffffffffffffffffffffffffffffffffffffff1614611568576040517f08c379a000000000000000000000000000000000000000000000000000000000815260040161155f906136b0565b60405180910390fd5b600073ffffffffffffffffffffffffffffffffffffffff168173ffffffffffffffffffffffffffffffffffffffff1614156115d8576040517f08c379a00000000000000000000000000000000000000000000000000000000081526004016115cf90613d3f565b60405180910390fd5b6115e181611d74565b50565b60008060065414156115f9576000905061170f565b600060065463ffffffff841661160f9190613d5f565b90506000602084901c935060006003600861162a9190613d90565b60ff1690505b600860ff1681116117075780600460008381526020019081526020016000208054905061165d9190613b3b565b826116689190613bf5565b9150818310611676576116f4565b600460008281526020019081526020016000206004600083815260200190815260200160002080549050866116ab9190613d5f565b815481106116bc576116bb61373c565b5b90600052602060002001600001600c9054906101000a900473ffffffffffffffffffffffffffffffffffffffff16935050505061170f565b80806116ff90613966565b915050611630565b506000925050505b919050565b61171c611b59565b73ffffffffffffffffffffffffffffffffffffffff168373ffffffffffffffffffffffffffffffffffffffff1614806117a95750600160009054906101000a900473ffffffffffffffffffffffffffffffffffffffff1673ffffffffffffffffffffffffffffffffffffffff16611791611b59565b73ffffffffffffffffffffffffffffffffffffffff16145b6117e8576040517f08c379a00000000000000000000000000000000000000000000000000000000081526004016117df90613e10565b60405180910390fd5b60005b82829050811015611b5357600160009054906101000a900473ffffffffffffffffffffffffffffffffffffffff1673ffffffffffffffffffffffffffffffffffffffff16611837611b59565b73ffffffffffffffffffffffffffffffffffffffff1614611a5c5761185a611b59565b73ffffffffffffffffffffffffffffffffffffffff16600160009054906101000a900473ffffffffffffffffffffffffffffffffffffffff1673ffffffffffffffffffffffffffffffffffffffff16636352211e8585858181106118c1576118c061373c565b5b90506020020160208101906118d69190613c77565b6040518263ffffffff1660e01b81526004016118f29190613e61565b60206040518083038186803b15801561190a57600080fd5b505afa15801561191e573d6000803e3d6000fd5b505050506040513d601f19601f820116820180604052508101906119429190613e91565b73ffffffffffffffffffffffffffffffffffffffff1614611998576040517f08c379a000000000000000000000000000000000000000000000000000000000815260040161198f90613f0a565b60405180910390fd5b600160009054906101000a900473ffffffffffffffffffffffffffffffffffffffff1673ffffffffffffffffffffffffffffffffffffffff166323b872dd6119de611b59565b308686868181106119f2576119f161373c565b5b9050602002016020810190611a079190613c77565b6040518463ffffffff1660e01b8152600401611a2593929190613f2a565b600060405180830381600087803b158015611a3f57600080fd5b505af1158015611a53573d6000803e3d6000fd5b50505050611a96565b6000838383818110611a7157611a7061373c565b5b9050602002016020810190611a869190613c77565b61ffff161415611a9557611b40565b5b611aca838383818110611aac57611aab61373c565b5b9050602002016020810190611ac19190613c77565b61ffff166110e1565b15611b0957611b0484848484818110611ae657611ae561373c565b5b9050602002016020810190611afb9190613c77565b61ffff16612b49565b611b3f565b611b3e84848484818110611b2057611b1f61373c565b5b9050602002016020810190611b359190613c77565b61ffff16612d52565b5b5b8080611b4b90613966565b9150506117eb565b50505050565b600033905090565b611b696106fd565b15611ba9576040517f08c379a0000000000000000000000000000000000000000000000000000000008152600401611ba090613b1b565b60405180910390fd5b6001600060146101000a81548160ff0219169083151502179055507f62e78cea01bee320cd4e420270b5ea74000d11b0c9f74754ebdbfc544b05a258611bed611b59565b604051611bfa9190613519565b60405180910390a1565b611c0c6106fd565b611c4b576040517f08c379a0000000000000000000000000000000000000000000000000000000008152600401611c4290613fad565b60405180910390fd5b60008060146101000a81548160ff0219169083151502179055507f5db9ee0a495bf2e6ff9c91a7834c1ba4fdd244a5e8aa4e537bd38aeae4b073aa611c8e611b59565b604051611c9b9190613519565b60405180910390a1565b600080600160009054906101000a900473ffffffffffffffffffffffffffffffffffffffff1673ffffffffffffffffffffffffffffffffffffffff1663e05c57bf846040518263ffffffff1660e01b8152600401611d03919061324f565b6101406040518083038186803b158015611d1c57600080fd5b505afa158015611d30573d6000803e3d6000fd5b505050506040513d601f19601f82011682018060405250810190611d5491906139f0565b9950505050505050505050806008611d6c9190613d90565b915050919050565b60008060009054906101000a900473ffffffffffffffffffffffffffffffffffffffff169050816000806101000a81548173ffffffffffffffffffffffffffffffffffffffff021916908373ffffffffffffffffffffffffffffffffffffffff1602179055508173ffffffffffffffffffffffffffffffffffffffff168173ffffffffffffffffffffffffffffffffffffffff167f8be0079c531659141344cd1fd0a4f28419497f9722a3daafe3b4186f6b6457e060405160405180910390a35050565b600080600360008581526020019081526020016000206040518060600160405290816000820160009054906101000a900461ffff1661ffff1661ffff1681526020016000820160029054906101000a900469ffffffffffffffffffff1669ffffffffffffffffffff1669ffffffffffffffffffff16815260200160008201600c9054906101000a900473ffffffffffffffffffffffffffffffffffffffff1673ffffffffffffffffffffffffffffffffffffffff1673ffffffffffffffffffffffffffffffffffffffff16815250509050611f11611b59565b73ffffffffffffffffffffffffffffffffffffffff16816040015173ffffffffffffffffffffffffffffffffffffffff1614611f82576040517f08c379a0000000000000000000000000000000000000000000000000000000008152600401611f7990614019565b60405180910390fd5b828015611fac57506202a300816020015169ffffffffffffffffffff1642611faa9190613887565b105b15611fec576040517f08c379a0000000000000000000000000000000000000000000000000000000008152600401611fe3906140ab565b60405180910390fd5b6b07c13bc4b2c133c5600000006009541015612048576201518069021e19e0c9bab2400000826020015169ffffffffffffffffffff164261202d9190613887565b6120379190613b3b565b6120419190613bc4565b91506120b0565b600b54816020015169ffffffffffffffffffff16111561206b57600091506120af565b6201518069021e19e0c9bab2400000826020015169ffffffffffffffffffff16600b546120989190613887565b6120a29190613b3b565b6120ac9190613bc4565b91505b5b82156121fd576001806120c286612f05565b1614156120d7576120d282612f4b565b600091505b600160009054906101000a900473ffffffffffffffffffffffffffffffffffffffff1673ffffffffffffffffffffffffffffffffffffffff1663b88d4fde3061211e611b59565b876040518463ffffffff1660e01b815260040161213d9392919061380e565b600060405180830381600087803b15801561215757600080fd5b505af115801561216b573d6000803e3d6000fd5b5050505060036000858152602001908152602001600020600080820160006101000a81549061ffff02191690556000820160026101000a81549069ffffffffffffffffffff021916905560008201600c6101000a81549073ffffffffffffffffffffffffffffffffffffffff021916905550506001600a60008282546121f19190613887565b92505081905550612341565b61221e606460148461220f9190613b3b565b6122199190613bc4565b612f4b565b60646014606461222e9190613887565b836122399190613b3b565b6122439190613bc4565b915060405180606001604052808561ffff1681526020014269ffffffffffffffffffff168152602001612274611b59565b73ffffffffffffffffffffffffffffffffffffffff168152506003600086815260200190815260200160002060008201518160000160006101000a81548161ffff021916908361ffff16021790555060208201518160000160026101000a81548169ffffffffffffffffffff021916908369ffffffffffffffffffff160217905550604082015181600001600c6101000a81548173ffffffffffffffffffffffffffffffffffffffff021916908373ffffffffffffffffffffffffffffffffffffffff1602179055509050505b7f3efaa1c793d4acf878ebfe3bf87eb225f725baaf61017d5380c5bd2c95afa46d848385604051612374939291906140cb565b60405180910390a15092915050565b60003073ffffffffffffffffffffffffffffffffffffffff16600160009054906101000a900473ffffffffffffffffffffffffffffffffffffffff1673ffffffffffffffffffffffffffffffffffffffff16636352211e856040518263ffffffff1660e01b81526004016123f7919061324f565b60206040518083038186803b15801561240f57600080fd5b505afa158015612423573d6000803e3d6000fd5b505050506040513d601f19601f820116820180604052508101906124479190613e91565b73ffffffffffffffffffffffffffffffffffffffff161461249d576040517f08c379a00000000000000000000000000000000000000000000000000000000081526004016124949061414e565b60405180910390fd5b60006124a884611ca5565b60ff1690506000600460008381526020019081526020016000206005600087815260200190815260200160002054815481106124e7576124e661373c565b5b906000526020600020016040518060600160405290816000820160009054906101000a900461ffff1661ffff1661ffff1681526020016000820160029054906101000a900469ffffffffffffffffffff1669ffffffffffffffffffff1669ffffffffffffffffffff16815260200160008201600c9054906101000a900473ffffffffffffffffffffffffffffffffffffffff1673ffffffffffffffffffffffffffffffffffffffff1673ffffffffffffffffffffffffffffffffffffffff168152505090506125b4611b59565b73ffffffffffffffffffffffffffffffffffffffff16816040015173ffffffffffffffffffffffffffffffffffffffff1614612625576040517f08c379a000000000000000000000000000000000000000000000000000000000815260040161261c906141ba565b60405180910390fd5b806020015169ffffffffffffffffffff166008546126439190613887565b8261264e9190613b3b565b925083156129d95781600660008282546126689190613887565b92505081905550600160009054906101000a900473ffffffffffffffffffffffffffffffffffffffff1673ffffffffffffffffffffffffffffffffffffffff1663b88d4fde306126b6611b59565b886040518463ffffffff1660e01b81526004016126d59392919061380e565b600060405180830381600087803b1580156126ef57600080fd5b505af1158015612703573d6000803e3d6000fd5b505050506000600460008481526020019081526020016000206001600460008681526020019081526020016000208054905061273f9190613887565b815481106127505761274f61373c565b5b906000526020600020016040518060600160405290816000820160009054906101000a900461ffff1661ffff1661ffff1681526020016000820160029054906101000a900469ffffffffffffffffffff1669ffffffffffffffffffff1669ffffffffffffffffffff16815260200160008201600c9054906101000a900473ffffffffffffffffffffffffffffffffffffffff1673ffffffffffffffffffffffffffffffffffffffff1673ffffffffffffffffffffffffffffffffffffffff16815250509050806004600085815260200190815260200160002060056000898152602001908152602001600020548154811061284e5761284d61373c565b5b9060005260206000200160008201518160000160006101000a81548161ffff021916908361ffff16021790555060208201518160000160026101000a81548169ffffffffffffffffffff021916908369ffffffffffffffffffff160217905550604082015181600001600c6101000a81548173ffffffffffffffffffffffffffffffffffffffff021916908373ffffffffffffffffffffffffffffffffffffffff160217905550905050600560008781526020019081526020016000205460056000836000015161ffff168152602001908152602001600020819055506004600084815260200190815260200160002080548061294e5761294d613937565b5b60019003818190600052602060002001600080820160006101000a81549061ffff02191690556000820160026101000a81549069ffffffffffffffffffff021916905560008201600c6101000a81549073ffffffffffffffffffffffffffffffffffffffff021916905550509055600560008781526020019081526020016000206000905550612b06565b60405180606001604052808661ffff16815260200160085469ffffffffffffffffffff168152602001612a0a611b59565b73ffffffffffffffffffffffffffffffffffffffff1681525060046000848152602001908152602001600020600560008881526020019081526020016000205481548110612a5b57612a5a61373c565b5b9060005260206000200160008201518160000160006101000a81548161ffff021916908361ffff16021790555060208201518160000160026101000a81548169ffffffffffffffffffff021916908369ffffffffffffffffffff160217905550604082015181600001600c6101000a81548173ffffffffffffffffffffffffffffffffffffffff021916908373ffffffffffffffffffffffffffffffffffffffff1602179055509050505b7f4d125de39fffaf1ee931be1d030cafb2d6314a90d497c282b31355a75a993e73858486604051612b39939291906140cb565b60405180910390a1505092915050565b612b516106fd565b15612b91576040517f08c379a0000000000000000000000000000000000000000000000000000000008152600401612b8890613b1b565b60405180910390fd5b6b07c13bc4b2c133c5600000006009541015612c05576201518069021e19e0c9bab2400000600a54600b5442612bc79190613887565b612bd19190613b3b565b612bdb9190613b3b565b612be59190613bc4565b60096000828254612bf69190613bf5565b9250508190555042600b819055505b60405180606001604052808261ffff1681526020014269ffffffffffffffffffff1681526020018373ffffffffffffffffffffffffffffffffffffffff168152506003600083815260200190815260200160002060008201518160000160006101000a81548161ffff021916908361ffff16021790555060208201518160000160026101000a81548169ffffffffffffffffffff021916908369ffffffffffffffffffff160217905550604082015181600001600c6101000a81548173ffffffffffffffffffffffffffffffffffffffff021916908373ffffffffffffffffffffffffffffffffffffffff1602179055509050506001600a6000828254612d0c9190613bf5565b925050819055507f6173e4d2d9dd52aae0ed37afed3adcf924a490639b759ca93d32dc43366c17d2828242604051612d46939291906141da565b60405180910390a15050565b6000612d5d82611ca5565b60ff1690508060066000828254612d749190613bf5565b92505081905550600460008281526020019081526020016000208054905060056000848152602001908152602001600020819055506004600082815260200190815260200160002060405180606001604052808461ffff16815260200160085469ffffffffffffffffffff1681526020018573ffffffffffffffffffffffffffffffffffffffff168152509080600181540180825580915050600190039060005260206000200160009091909190915060008201518160000160006101000a81548161ffff021916908361ffff16021790555060208201518160000160026101000a81548169ffffffffffffffffffff021916908369ffffffffffffffffffff160217905550604082015181600001600c6101000a81548173ffffffffffffffffffffffffffffffffffffffff021916908373ffffffffffffffffffffffffffffffffffffffff16021790555050507f6173e4d2d9dd52aae0ed37afed3adcf924a490639b759ca93d32dc43366c17d28383600854604051612ef8939291906141da565b60405180910390a1505050565b600032600143612f159190613887565b404284604051602001612f2b94939291906142a5565b6040516020818303038152906040528051906020012060001c9050919050565b60006006541415612f74578060076000828254612f689190613bf5565b92505081905550612fb0565b60065460075482612f859190613bf5565b612f8f9190613bc4565b60086000828254612fa09190613bf5565b9250508190555060006007819055505b50565b6040518060600160405280600061ffff168152602001600069ffffffffffffffffffff168152602001600073ffffffffffffffffffffffffffffffffffffffff1681525090565b600080fd5b600080fd5b600073ffffffffffffffffffffffffffffffffffffffff82169050919050565b600061302f82613004565b9050919050565b61303f81613024565b811461304a57600080fd5b50565b60008135905061305c81613036565b92915050565b6000819050919050565b61307581613062565b811461308057600080fd5b50565b6000813590506130928161306c565b92915050565b600080fd5b600080fd5b600080fd5b60008083601f8401126130bd576130bc613098565b5b8235905067ffffffffffffffff8111156130da576130d961309d565b5b6020830191508360018202830111156130f6576130f56130a2565b5b9250929050565b60008060008060006080868803121561311957613118612ffa565b5b60006131278882890161304d565b95505060206131388882890161304d565b945050604061314988828901613083565b935050606086013567ffffffffffffffff81111561316a57613169612fff565b5b613176888289016130a7565b92509250509295509295909350565b60007fffffffff0000000000000000000000000000000000000000000000000000000082169050919050565b6131ba81613185565b82525050565b60006020820190506131d560008301846131b1565b92915050565b60008115159050919050565b6131f0816131db565b81146131fb57600080fd5b50565b60008135905061320d816131e7565b92915050565b60006020828403121561322957613228612ffa565b5b6000613237848285016131fe565b91505092915050565b61324981613062565b82525050565b60006020820190506132646000830184613240565b92915050565b600060ff82169050919050565b6132808161326a565b82525050565b600060208201905061329b6000830184613277565b92915050565b6132aa816131db565b82525050565b60006020820190506132c560008301846132a1565b92915050565b600080604083850312156132e2576132e1612ffa565b5b60006132f085828601613083565b925050602061330185828601613083565b9150509250929050565b600061ffff82169050919050565b6133228161330b565b82525050565b600069ffffffffffffffffffff82169050919050565b61334781613328565b82525050565b61335681613024565b82525050565b60006060820190506133716000830186613319565b61337e602083018561333e565b61338b604083018461334d565b949350505050565b60008083601f8401126133a9576133a8613098565b5b8235905067ffffffffffffffff8111156133c6576133c561309d565b5b6020830191508360208202830111156133e2576133e16130a2565b5b9250929050565b60008060208385031215613400576133ff612ffa565b5b600083013567ffffffffffffffff81111561341e5761341d612fff565b5b61342a85828601613393565b92509250509250929050565b60006020828403121561344c5761344b612ffa565b5b600061345a84828501613083565b91505092915050565b60008083601f84011261347957613478613098565b5b8235905067ffffffffffffffff8111156134965761349561309d565b5b6020830191508360208202830111156134b2576134b16130a2565b5b9250929050565b6000806000604084860312156134d2576134d1612ffa565b5b600084013567ffffffffffffffff8111156134f0576134ef612fff565b5b6134fc86828701613463565b9350935050602061350f868287016131fe565b9150509250925092565b600060208201905061352e600083018461334d565b92915050565b60006020828403121561354a57613549612ffa565b5b60006135588482850161304d565b91505092915050565b60008060006040848603121561357a57613579612ffa565b5b60006135888682870161304d565b935050602084013567ffffffffffffffff8111156135a9576135a8612fff565b5b6135b586828701613463565b92509250509250925092565b600082825260208201905092915050565b7f43616e6e6f742073656e6420746f6b656e7320746f204261726e20646972656360008201527f746c790000000000000000000000000000000000000000000000000000000000602082015250565b600061362e6023836135c1565b9150613639826135d2565b604082019050919050565b6000602082019050818103600083015261365d81613621565b9050919050565b7f4f776e61626c653a2063616c6c6572206973206e6f7420746865206f776e6572600082015250565b600061369a6020836135c1565b91506136a582613664565b602082019050919050565b600060208201905081810360008301526136c98161368d565b9050919050565b7f5245534355452044495341424c45440000000000000000000000000000000000600082015250565b6000613706600f836135c1565b9150613711826136d0565b602082019050919050565b60006020820190508181036000830152613735816136f9565b9050919050565b7f4e487b7100000000000000000000000000000000000000000000000000000000600052603260045260246000fd5b7f5357495045522c204e4f2053574950494e470000000000000000000000000000600082015250565b60006137a16012836135c1565b91506137ac8261376b565b602082019050919050565b600060208201905081810360008301526137d081613794565b9050919050565b600082825260208201905092915050565b50565b60006137f86000836137d7565b9150613803826137e8565b600082019050919050565b6000608082019050613823600083018661334d565b613830602083018561334d565b61383d6040830184613240565b818103606083015261384e816137eb565b9050949350505050565b7f4e487b7100000000000000000000000000000000000000000000000000000000600052601160045260246000fd5b600061389282613062565b915061389d83613062565b9250828210156138b0576138af613858565b5b828203905092915050565b6000819050919050565b6000819050919050565b60006138ea6138e56138e0846138bb565b6138c5565b613062565b9050919050565b6138fa816138cf565b82525050565b60006060820190506139156000830186613240565b61392260208301856138f1565b61392f60408301846132a1565b949350505050565b7f4e487b7100000000000000000000000000000000000000000000000000000000600052603160045260246000fd5b600061397182613062565b91507fffffffffffffffffffffffffffffffffffffffffffffffffffffffffffffffff8214156139a4576139a3613858565b5b600182019050919050565b6000815190506139be816131e7565b92915050565b6139cd8161326a565b81146139d857600080fd5b50565b6000815190506139ea816139c4565b92915050565b6000806000806000806000806000806101408b8d031215613a1457613a13612ffa565b5b6000613a228d828e016139af565b9a50506020613a338d828e016139db565b9950506040613a448d828e016139db565b9850506060613a558d828e016139db565b9750506080613a668d828e016139db565b96505060a0613a778d828e016139db565b95505060c0613a888d828e016139db565b94505060e0613a998d828e016139db565b935050610100613aab8d828e016139db565b925050610120613abd8d828e016139db565b9150509295989b9194979a5092959850565b7f5061757361626c653a2070617573656400000000000000000000000000000000600082015250565b6000613b056010836135c1565b9150613b1082613acf565b602082019050919050565b60006020820190508181036000830152613b3481613af8565b9050919050565b6000613b4682613062565b9150613b5183613062565b9250817fffffffffffffffffffffffffffffffffffffffffffffffffffffffffffffffff0483118215151615613b8a57613b89613858565b5b828202905092915050565b7f4e487b7100000000000000000000000000000000000000000000000000000000600052601260045260246000fd5b6000613bcf82613062565b9150613bda83613062565b925082613bea57613be9613b95565b5b828204905092915050565b6000613c0082613062565b9150613c0b83613062565b9250827fffffffffffffffffffffffffffffffffffffffffffffffffffffffffffffffff03821115613c4057613c3f613858565b5b828201905092915050565b613c548161330b565b8114613c5f57600080fd5b50565b600081359050613c7181613c4b565b92915050565b600060208284031215613c8d57613c8c612ffa565b5b6000613c9b84828501613c62565b91505092915050565b6000604082019050613cb9600083018561334d565b613cc66020830184613240565b9392505050565b7f4f776e61626c653a206e6577206f776e657220697320746865207a65726f206160008201527f6464726573730000000000000000000000000000000000000000000000000000602082015250565b6000613d296026836135c1565b9150613d3482613ccd565b604082019050919050565b60006020820190508181036000830152613d5881613d1c565b9050919050565b6000613d6a82613062565b9150613d7583613062565b925082613d8557613d84613b95565b5b828206905092915050565b6000613d9b8261326a565b9150613da68361326a565b925082821015613db957613db8613858565b5b828203905092915050565b7f444f4e54204749564520594f555220544f4b454e532041574159000000000000600082015250565b6000613dfa601a836135c1565b9150613e0582613dc4565b602082019050919050565b60006020820190508181036000830152613e2981613ded565b9050919050565b6000613e4b613e46613e418461330b565b6138c5565b613062565b9050919050565b613e5b81613e30565b82525050565b6000602082019050613e766000830184613e52565b92915050565b600081519050613e8b81613036565b92915050565b600060208284031215613ea757613ea6612ffa565b5b6000613eb584828501613e7c565b91505092915050565b7f41494e5420594f20544f4b454e00000000000000000000000000000000000000600082015250565b6000613ef4600d836135c1565b9150613eff82613ebe565b602082019050919050565b60006020820190508181036000830152613f2381613ee7565b9050919050565b6000606082019050613f3f600083018661334d565b613f4c602083018561334d565b613f596040830184613e52565b949350505050565b7f5061757361626c653a206e6f7420706175736564000000000000000000000000600082015250565b6000613f976014836135c1565b9150613fa282613f61565b602082019050919050565b60006020820190508181036000830152613fc681613f8a565b9050919050565b7f474f4453204e4556455220444945000000000000000000000000000000000000600082015250565b6000614003600e836135c1565b915061400e82613fcd565b602082019050919050565b6000602082019050818103600083015261403281613ff6565b9050919050565b7f474f4e4e4120424520434f4c4420574954484f55542054574f2044415927532060008201527f574f4f4c00000000000000000000000000000000000000000000000000000000602082015250565b60006140956024836135c1565b91506140a082614039565b604082019050919050565b600060208201905081810360008301526140c481614088565b9050919050565b60006060820190506140e06000830186613240565b6140ed6020830185613240565b6140fa60408301846132a1565b949350505050565b7f41494e5420412050415254204f46205448452050414e5448454f4e0000000000600082015250565b6000614138601b836135c1565b915061414382614102565b602082019050919050565b600060208201905081810360008301526141678161412b565b9050919050565b7f474f44532041524520414c4d4947485459000000000000000000000000000000600082015250565b60006141a46011836135c1565b91506141af8261416e565b602082019050919050565b600060208201905081810360008301526141d381614197565b9050919050565b60006060820190506141ef600083018661334d565b6141fc6020830185613240565b6142096040830184613240565b949350505050565b60008160601b9050919050565b600061422982614211565b9050919050565b600061423b8261421e565b9050919050565b61425361424e82613024565b614230565b82525050565b6000819050919050565b6000819050919050565b61427e61427982614259565b614263565b82525050565b6000819050919050565b61429f61429a82613062565b614284565b82525050565b60006142b18287614242565b6014820191506142c1828661426d565b6020820191506142d1828561428e565b6020820191506142e1828461428e565b6020820191508190509594505050505056fea26469706673582212206eacc1487227effced22ec17667dd1188c27590df5c964a2212bcd102ccd378464736f6c63430008090033",
  "linkReferences": {},
  "deployedLinkReferences": {}
}